{
  "_format": "hh-sol-artifact-1",
  "contractName": "Multi_Sig",
  "sourceName": "contracts/Multi_Sig.sol",
  "abi": [
    {
      "inputs": [
        {
          "internalType": "address",
          "name": "_owner2",
          "type": "address"
        },
        {
          "internalType": "address",
          "name": "_owner3",
          "type": "address"
        },
        {
          "internalType": "uint256",
          "name": "amount",
          "type": "uint256"
        }
      ],
      "stateMutability": "nonpayable",
      "type": "constructor"
    },
    {
      "anonymous": false,
      "inputs": [
        {
          "indexed": false,
          "internalType": "address",
          "name": "destination",
          "type": "address"
        },
        {
          "indexed": false,
          "internalType": "uint256",
          "name": "amount",
          "type": "uint256"
        },
        {
          "indexed": false,
          "internalType": "bytes",
          "name": "data",
          "type": "bytes"
        }
      ],
      "name": "Transaction_Approved",
      "type": "event"
    },
    {
      "anonymous": false,
      "inputs": [
        {
          "indexed": false,
          "internalType": "address",
          "name": "destination",
          "type": "address"
        },
        {
          "indexed": false,
          "internalType": "uint256",
          "name": "amount",
          "type": "uint256"
        }
      ],
      "name": "Transaction_Proposed",
      "type": "event"
    },
    {
      "anonymous": false,
      "inputs": [
        {
          "indexed": false,
          "internalType": "address",
          "name": "destination",
          "type": "address"
        },
        {
          "indexed": false,
          "internalType": "uint256",
          "name": "amount",
          "type": "uint256"
        }
      ],
      "name": "Transaction_Rejected",
      "type": "event"
    },
    {
      "inputs": [],
      "name": "Amount",
      "outputs": [
        {
          "internalType": "uint256",
          "name": "",
          "type": "uint256"
        }
      ],
      "stateMutability": "view",
      "type": "function"
    },
    {
      "inputs": [],
      "name": "Approve_Transaction",
      "outputs": [],
      "stateMutability": "nonpayable",
      "type": "function"
    },
    {
      "inputs": [
        {
          "internalType": "uint256",
          "name": "amount",
          "type": "uint256"
        }
      ],
      "name": "Propose_Funding",
      "outputs": [],
      "stateMutability": "nonpayable",
      "type": "function"
    },
    {
      "inputs": [],
      "name": "Reject_Transaction",
      "outputs": [],
      "stateMutability": "nonpayable",
      "type": "function"
    },
    {
      "inputs": [],
      "name": "add_Amount",
      "outputs": [],
      "stateMutability": "payable",
      "type": "function"
    },
    {
      "inputs": [
        {
          "internalType": "uint256",
          "name": "",
          "type": "uint256"
        }
      ],
      "name": "addresses",
      "outputs": [
        {
          "internalType": "address",
          "name": "",
          "type": "address"
        }
      ],
      "stateMutability": "view",
      "type": "function"
    },
    {
      "inputs": [],
      "name": "balance",
      "outputs": [
        {
          "internalType": "uint256",
          "name": "",
          "type": "uint256"
        }
      ],
      "stateMutability": "view",
      "type": "function"
    },
    {
      "inputs": [],
      "name": "counter",
      "outputs": [
        {
          "internalType": "uint256",
          "name": "",
          "type": "uint256"
        }
      ],
      "stateMutability": "view",
      "type": "function"
    },
    {
      "inputs": [],
      "name": "implement_Transaction",
      "outputs": [],
      "stateMutability": "nonpayable",
      "type": "function"
    },
    {
      "inputs": [
        {
          "internalType": "uint256",
          "name": "",
          "type": "uint256"
        }
      ],
      "name": "owner_addresses",
      "outputs": [
        {
          "internalType": "address",
          "name": "",
          "type": "address"
        }
      ],
      "stateMutability": "view",
      "type": "function"
    },
    {
      "inputs": [
        {
          "internalType": "uint256",
          "name": "_amount",
          "type": "uint256"
        },
        {
          "internalType": "address",
          "name": "_destination",
          "type": "address"
        },
        {
          "internalType": "bytes",
          "name": "_data",
          "type": "bytes"
        }
      ],
      "name": "propose_Transaction",
      "outputs": [],
      "stateMutability": "nonpayable",
      "type": "function"
    },
    {
      "inputs": [],
      "name": "state",
      "outputs": [
        {
          "internalType": "enum Multi_Sig.State",
          "name": "",
          "type": "uint8"
        }
      ],
      "stateMutability": "view",
      "type": "function"
    },
    {
      "inputs": [
        {
          "internalType": "uint256",
          "name": "",
          "type": "uint256"
        }
      ],
      "name": "transaction_Records",
      "outputs": [
        {
          "internalType": "enum Multi_Sig.State",
          "name": "currentState",
          "type": "uint8"
        },
        {
          "internalType": "uint256",
          "name": "approvals",
          "type": "uint256"
        },
        {
          "internalType": "uint256",
          "name": "rejections",
          "type": "uint256"
        },
        {
          "internalType": "uint256",
          "name": "amount",
          "type": "uint256"
        },
        {
          "internalType": "address payable",
          "name": "destination",
          "type": "address"
        },
        {
          "internalType": "bytes",
          "name": "data",
          "type": "bytes"
        },
        {
          "internalType": "uint256",
          "name": "endTime",
          "type": "uint256"
        },
        {
          "internalType": "uint256",
          "name": "index",
          "type": "uint256"
        }
      ],
      "stateMutability": "view",
      "type": "function"
    }
  ],
  "bytecode": "0x6080604052600060025560006004553480156200001b57600080fd5b506040516200332c3803806200332c833981810160405281019062000041919062000311565b6000600367ffffffffffffffff8111156200006157620000606200036d565b5b604051908082528060200260200182016040528015620000905781602001602082028036833780820191505090505b5090503381600081518110620000ab57620000aa6200039c565b5b602002602001019073ffffffffffffffffffffffffffffffffffffffff16908173ffffffffffffffffffffffffffffffffffffffff16815250508381600181518110620000fd57620000fc6200039c565b5b602002602001019073ffffffffffffffffffffffffffffffffffffffff16908173ffffffffffffffffffffffffffffffffffffffff168152505082816002815181106200014f576200014e6200039c565b5b602002602001019073ffffffffffffffffffffffffffffffffffffffff16908173ffffffffffffffffffffffffffffffffffffffff168152505060005b60038110156200022c576003828281518110620001ae57620001ad6200039c565b5b60200260200101519080600181540180825580915050600190039060005260206000200160009091909190916101000a81548173ffffffffffffffffffffffffffffffffffffffff021916908373ffffffffffffffffffffffffffffffffffffffff16021790555080806200022390620003fa565b9150506200018c565b50816004819055506000600560006101000a81548160ff021916908360028111156200025d576200025c62000447565b5b02179055505050505062000476565b600080fd5b600073ffffffffffffffffffffffffffffffffffffffff82169050919050565b60006200029e8262000271565b9050919050565b620002b08162000291565b8114620002bc57600080fd5b50565b600081519050620002d081620002a5565b92915050565b6000819050919050565b620002eb81620002d6565b8114620002f757600080fd5b50565b6000815190506200030b81620002e0565b92915050565b6000806000606084860312156200032d576200032c6200026c565b5b60006200033d86828701620002bf565b93505060206200035086828701620002bf565b92505060406200036386828701620002fa565b9150509250925092565b7f4e487b7100000000000000000000000000000000000000000000000000000000600052604160045260246000fd5b7f4e487b7100000000000000000000000000000000000000000000000000000000600052603260045260246000fd5b7f4e487b7100000000000000000000000000000000000000000000000000000000600052601160045260246000fd5b60006200040782620002d6565b91507fffffffffffffffffffffffffffffffffffffffffffffffffffffffffffffffff82036200043c576200043b620003cb565b5b600182019050919050565b7f4e487b7100000000000000000000000000000000000000000000000000000000600052602160045260246000fd5b612ea680620004866000396000f3fe6080604052600436106100c25760003560e01c8063c19d93fb1161007f578063df2dda2311610059578063df2dda231461022a578063e07ec8eb14610241578063e81127a21461027e578063edf26d9b14610295576100c2565b8063c19d93fb146101bf578063c42d4653146101ea578063cb07cfa314610201576100c2565b80635994d87f146100c75780635a66bc6a1461010b57806361bc221a14610136578063a870a79f14610161578063ab7555b01461018a578063b69ef8a814610194575b600080fd5b3480156100d357600080fd5b506100ee60048036038101906100e99190612124565b6102d2565b6040516101029897969594939291906122a8565b60405180910390f35b34801561011757600080fd5b506101206103df565b60405161012d919061232d565b60405180910390f35b34801561014257600080fd5b5061014b6103e5565b604051610158919061232d565b60405180910390f35b34801561016d57600080fd5b5061018860048036038101906101839190612124565b6103eb565b005b610192610696565b005b3480156101a057600080fd5b506101a9610a75565b6040516101b6919061232d565b60405180910390f35b3480156101cb57600080fd5b506101d4610a7b565b6040516101e19190612348565b60405180910390f35b3480156101f657600080fd5b506101ff610a8e565b005b34801561020d57600080fd5b50610228600480360381019061022391906124d6565b6110cb565b005b34801561023657600080fd5b5061023f611585565b005b34801561024d57600080fd5b5061026860048036038101906102639190612124565b611a15565b6040516102759190612554565b60405180910390f35b34801561028a57600080fd5b50610293611a54565b005b3480156102a157600080fd5b506102bc60048036038101906102b79190612124565b611ee4565b6040516102c99190612554565b60405180910390f35b600081815481106102e257600080fd5b90600052602060002090600b02016000915090508060000160009054906101000a900460ff16908060010154908060020154908060030154908060040160009054906101000a900473ffffffffffffffffffffffffffffffffffffffff16908060050180546103509061259e565b80601f016020809104026020016040519081016040528092919081815260200182805461037c9061259e565b80156103c95780601f1061039e576101008083540402835291602001916103c9565b820191906000526020600020905b8154815290600101906020018083116103ac57829003601f168201915b50505050509080600901549080600a0154905088565b60045481565b60015481565b6003600081548110610400576103ff6125cf565b5b9060005260206000200160009054906101000a900473ffffffffffffffffffffffffffffffffffffffff1673ffffffffffffffffffffffffffffffffffffffff163373ffffffffffffffffffffffffffffffffffffffff1614806104ce57506003600181548110610474576104736125cf565b5b9060005260206000200160009054906101000a900473ffffffffffffffffffffffffffffffffffffffff1673ffffffffffffffffffffffffffffffffffffffff163373ffffffffffffffffffffffffffffffffffffffff16145b80610543575060036002815481106104e9576104e86125cf565b5b9060005260206000200160009054906101000a900473ffffffffffffffffffffffffffffffffffffffff1673ffffffffffffffffffffffffffffffffffffffff163373ffffffffffffffffffffffffffffffffffffffff16145b610582576040517f08c379a000000000000000000000000000000000000000000000000000000000815260040161057990612681565b60405180910390fd5b600180600281111561059757610596612151565b5b600560009054906101000a900460ff1660028111156105b9576105b8612151565b5b146105f9576040517f08c379a00000000000000000000000000000000000000000000000000000000081526004016105f090612713565b60405180910390fd5b8160048190555060005b600381101561066657600680548061061e5761061d612733565b5b6001900381819060005260206000200160006101000a81549073ffffffffffffffffffffffffffffffffffffffff02191690559055808061065e90612791565b915050610603565b506000600560006101000a81548160ff0219169083600281111561068d5761068c612151565b5b02179055505050565b3360005b600680549050811015610766578173ffffffffffffffffffffffffffffffffffffffff16600682815481106106d2576106d16125cf565b5b9060005260206000200160009054906101000a900473ffffffffffffffffffffffffffffffffffffffff1673ffffffffffffffffffffffffffffffffffffffff1603610753576040517f08c379a000000000000000000000000000000000000000000000000000000000815260040161074a9061284b565b60405180910390fd5b808061075e90612791565b91505061069a565b50600360008154811061077c5761077b6125cf565b5b9060005260206000200160009054906101000a900473ffffffffffffffffffffffffffffffffffffffff1673ffffffffffffffffffffffffffffffffffffffff163373ffffffffffffffffffffffffffffffffffffffff16148061084a575060036001815481106107f0576107ef6125cf565b5b9060005260206000200160009054906101000a900473ffffffffffffffffffffffffffffffffffffffff1673ffffffffffffffffffffffffffffffffffffffff163373ffffffffffffffffffffffffffffffffffffffff16145b806108bf57506003600281548110610865576108646125cf565b5b9060005260206000200160009054906101000a900473ffffffffffffffffffffffffffffffffffffffff1673ffffffffffffffffffffffffffffffffffffffff163373ffffffffffffffffffffffffffffffffffffffff16145b6108fe576040517f08c379a00000000000000000000000000000000000000000000000000000000081526004016108f590612681565b60405180910390fd5b600080600281111561091357610912612151565b5b600560009054906101000a900460ff16600281111561093557610934612151565b5b14610975576040517f08c379a000000000000000000000000000000000000000000000000000000000815260040161096c90612713565b60405180910390fd5b6004543410156109ba576040517f08c379a00000000000000000000000000000000000000000000000000000000081526004016109b1906128b7565b60405180910390fd5b6109cf34600254611f2390919063ffffffff16565b6002819055506006339080600181540180825580915050600190039060005260206000200160009091909190916101000a81548173ffffffffffffffffffffffffffffffffffffffff021916908373ffffffffffffffffffffffffffffffffffffffff160217905550600360068054905003610a71576001600560006101000a81548160ff02191690836002811115610a6b57610a6a612151565b5b02179055505b5050565b60025481565b600560009054906101000a900460ff1681565b6003600081548110610aa357610aa26125cf565b5b9060005260206000200160009054906101000a900473ffffffffffffffffffffffffffffffffffffffff1673ffffffffffffffffffffffffffffffffffffffff163373ffffffffffffffffffffffffffffffffffffffff161480610b7157506003600181548110610b1757610b166125cf565b5b9060005260206000200160009054906101000a900473ffffffffffffffffffffffffffffffffffffffff1673ffffffffffffffffffffffffffffffffffffffff163373ffffffffffffffffffffffffffffffffffffffff16145b80610be657506003600281548110610b8c57610b8b6125cf565b5b9060005260206000200160009054906101000a900473ffffffffffffffffffffffffffffffffffffffff1673ffffffffffffffffffffffffffffffffffffffff163373ffffffffffffffffffffffffffffffffffffffff16145b610c25576040517f08c379a0000000000000000000000000000000000000000000000000000000008152600401610c1c90612681565b60405180910390fd5b6002806002811115610c3a57610c39612151565b5b600060015481548110610c5057610c4f6125cf565b5b90600052602060002090600b020160000160009054906101000a900460ff166002811115610c8157610c80612151565b5b14610cc1576040517f08c379a0000000000000000000000000000000000000000000000000000000008152600401610cb890612713565b60405180910390fd5b600254600060015481548110610cda57610cd96125cf565b5b90600052602060002090600b0201600301541115610d2d576040517f08c379a0000000000000000000000000000000000000000000000000000000008152600401610d2490612949565b60405180910390fd5b6002600060015481548110610d4557610d446125cf565b5b90600052602060002090600b02016001015410158015610d8b575042600060015481548110610d7757610d766125cf565b5b90600052602060002090600b020160090154115b15610f5b57610dcc600060015481548110610da957610da86125cf565b5b90600052602060002090600b020160030154600254611f3990919063ffffffff16565b600281905550600060015481548110610de857610de76125cf565b5b90600052602060002090600b020160040160009054906101000a900473ffffffffffffffffffffffffffffffffffffffff1673ffffffffffffffffffffffffffffffffffffffff166108fc600060015481548110610e4957610e486125cf565b5b90600052602060002090600b0201600301549081150290604051600060405180830381858888f19350505050158015610e86573d6000803e3d6000fd5b507f3a649b9b160185087faf7870e9fc233eb56f3ed1b8e33a977a0ab7d292f8a05c600060015481548110610ebe57610ebd6125cf565b5b90600052602060002090600b020160040160009054906101000a900473ffffffffffffffffffffffffffffffffffffffff16600060015481548110610f0657610f056125cf565b5b90600052602060002090600b020160030154600060015481548110610f2e57610f2d6125cf565b5b90600052602060002090600b0201600501604051610f4e93929190612a61565b60405180910390a1611003565b7f7c921130acad2470263f1e3d90dfdbecd915cf374707ad268a98d3dfeb098a34600060015481548110610f9257610f916125cf565b5b90600052602060002090600b020160040160009054906101000a900473ffffffffffffffffffffffffffffffffffffffff16600060015481548110610fda57610fd96125cf565b5b90600052602060002090600b020160030154604051610ffa929190612a9f565b60405180910390a15b600060015481548110611019576110186125cf565b5b90600052602060002090600b0201600080820160006101000a81549060ff02191690556001820160009055600282016000905560038201600090556004820160006101000a81549073ffffffffffffffffffffffffffffffffffffffff021916905560058201600061108b9190611f4f565b60068201600061109b9190611f8f565b6009820160009055600a82016000905550506110c260018054611f2390919063ffffffff16565b60018190555050565b60036000815481106110e0576110df6125cf565b5b9060005260206000200160009054906101000a900473ffffffffffffffffffffffffffffffffffffffff1673ffffffffffffffffffffffffffffffffffffffff163373ffffffffffffffffffffffffffffffffffffffff1614806111ae57506003600181548110611154576111536125cf565b5b9060005260206000200160009054906101000a900473ffffffffffffffffffffffffffffffffffffffff1673ffffffffffffffffffffffffffffffffffffffff163373ffffffffffffffffffffffffffffffffffffffff16145b80611223575060036002815481106111c9576111c86125cf565b5b9060005260206000200160009054906101000a900473ffffffffffffffffffffffffffffffffffffffff1673ffffffffffffffffffffffffffffffffffffffff163373ffffffffffffffffffffffffffffffffffffffff16145b611262576040517f08c379a000000000000000000000000000000000000000000000000000000000815260040161125990612681565b60405180910390fd5b600180600281111561127757611276612151565b5b600560009054906101000a900460ff16600281111561129957611298612151565b5b146112d9576040517f08c379a00000000000000000000000000000000000000000000000000000000081526004016112d090612713565b60405180910390fd5b60025484111561131e576040517f08c379a000000000000000000000000000000000000000000000000000000000815260040161131590612949565b60405180910390fd5b611326611fa4565b60028160000190600281111561133f5761133e612151565b5b9081600281111561135357611352612151565b5b8152505060018160200181815250508481606001818152505083816080019073ffffffffffffffffffffffffffffffffffffffff16908173ffffffffffffffffffffffffffffffffffffffff1681525050828160a001819052506113c36201518042611f2390919063ffffffff16565b8160e0018181525050338160c001516000600381106113e5576113e46125cf565b5b602002019073ffffffffffffffffffffffffffffffffffffffff16908173ffffffffffffffffffffffffffffffffffffffff16815250506114356001826101000151611f2390919063ffffffff16565b8161010001818152505060008190806001815401808255809150506001900390600052602060002090600b020160009091909190915060008201518160000160006101000a81548160ff0219169083600281111561149657611495612151565b5b021790555060208201518160010155604082015181600201556060820151816003015560808201518160040160006101000a81548173ffffffffffffffffffffffffffffffffffffffff021916908373ffffffffffffffffffffffffffffffffffffffff16021790555060a08201518160050190816115159190612c55565b5060c08201518160060190600361152d92919061201e565b5060e0820151816009015561010082015181600a015550507f9d2febdb3eee9bbb95be4c5ab2eebfe91cf7c54e469051e2fc6639c6a25b1f278486604051611576929190612d27565b60405180910390a15050505050565b3360005b600680549050811015611671578173ffffffffffffffffffffffffffffffffffffffff166000600154815481106115c3576115c26125cf565b5b90600052602060002090600b020160060182600381106115e6576115e56125cf565b5b0160009054906101000a900473ffffffffffffffffffffffffffffffffffffffff1673ffffffffffffffffffffffffffffffffffffffff160361165e576040517f08c379a000000000000000000000000000000000000000000000000000000000815260040161165590612de8565b60405180910390fd5b808061166990612791565b915050611589565b506003600081548110611687576116866125cf565b5b9060005260206000200160009054906101000a900473ffffffffffffffffffffffffffffffffffffffff1673ffffffffffffffffffffffffffffffffffffffff163373ffffffffffffffffffffffffffffffffffffffff161480611755575060036001815481106116fb576116fa6125cf565b5b9060005260206000200160009054906101000a900473ffffffffffffffffffffffffffffffffffffffff1673ffffffffffffffffffffffffffffffffffffffff163373ffffffffffffffffffffffffffffffffffffffff16145b806117ca575060036002815481106117705761176f6125cf565b5b9060005260206000200160009054906101000a900473ffffffffffffffffffffffffffffffffffffffff1673ffffffffffffffffffffffffffffffffffffffff163373ffffffffffffffffffffffffffffffffffffffff16145b611809576040517f08c379a000000000000000000000000000000000000000000000000000000000815260040161180090612681565b60405180910390fd5b600280600281111561181e5761181d612151565b5b600060015481548110611834576118336125cf565b5b90600052602060002090600b020160000160009054906101000a900460ff16600281111561186557611864612151565b5b146118a5576040517f08c379a000000000000000000000000000000000000000000000000000000000815260040161189c90612713565b60405180910390fd5b6118e060016000600154815481106118c0576118bf6125cf565b5b90600052602060002090600b020160010154611f2390919063ffffffff16565b6000600154815481106118f6576118f56125cf565b5b90600052602060002090600b02016001018190555033600060015481548110611922576119216125cf565b5b90600052602060002090600b0201600601600060015481548110611949576119486125cf565b5b90600052602060002090600b0201600a01546003811061196c5761196b6125cf565b5b0160006101000a81548173ffffffffffffffffffffffffffffffffffffffff021916908373ffffffffffffffffffffffffffffffffffffffff1602179055506119e660016000600154815481106119c6576119c56125cf565b5b90600052602060002090600b0201600a0154611f2390919063ffffffff16565b6000600154815481106119fc576119fb6125cf565b5b90600052602060002090600b0201600a01819055505050565b60038181548110611a2557600080fd5b906000526020600020016000915054906101000a900473ffffffffffffffffffffffffffffffffffffffff1681565b3360005b600680549050811015611b40578173ffffffffffffffffffffffffffffffffffffffff16600060015481548110611a9257611a916125cf565b5b90600052602060002090600b02016006018260038110611ab557611ab46125cf565b5b0160009054906101000a900473ffffffffffffffffffffffffffffffffffffffff1673ffffffffffffffffffffffffffffffffffffffff1603611b2d576040517f08c379a0000000000000000000000000000000000000000000000000000000008152600401611b2490612de8565b60405180910390fd5b8080611b3890612791565b915050611a58565b506003600081548110611b5657611b556125cf565b5b9060005260206000200160009054906101000a900473ffffffffffffffffffffffffffffffffffffffff1673ffffffffffffffffffffffffffffffffffffffff163373ffffffffffffffffffffffffffffffffffffffff161480611c2457506003600181548110611bca57611bc96125cf565b5b9060005260206000200160009054906101000a900473ffffffffffffffffffffffffffffffffffffffff1673ffffffffffffffffffffffffffffffffffffffff163373ffffffffffffffffffffffffffffffffffffffff16145b80611c9957506003600281548110611c3f57611c3e6125cf565b5b9060005260206000200160009054906101000a900473ffffffffffffffffffffffffffffffffffffffff1673ffffffffffffffffffffffffffffffffffffffff163373ffffffffffffffffffffffffffffffffffffffff16145b611cd8576040517f08c379a0000000000000000000000000000000000000000000000000000000008152600401611ccf90612681565b60405180910390fd5b6002806002811115611ced57611cec612151565b5b600060015481548110611d0357611d026125cf565b5b90600052602060002090600b020160000160009054906101000a900460ff166002811115611d3457611d33612151565b5b14611d74576040517f08c379a0000000000000000000000000000000000000000000000000000000008152600401611d6b90612713565b60405180910390fd5b611daf6001600060015481548110611d8f57611d8e6125cf565b5b90600052602060002090600b020160020154611f2390919063ffffffff16565b600060015481548110611dc557611dc46125cf565b5b90600052602060002090600b02016002018190555033600060015481548110611df157611df06125cf565b5b90600052602060002090600b0201600601600060015481548110611e1857611e176125cf565b5b90600052602060002090600b0201600a015460038110611e3b57611e3a6125cf565b5b0160006101000a81548173ffffffffffffffffffffffffffffffffffffffff021916908373ffffffffffffffffffffffffffffffffffffffff160217905550611eb56001600060015481548110611e9557611e946125cf565b5b90600052602060002090600b0201600a0154611f2390919063ffffffff16565b600060015481548110611ecb57611eca6125cf565b5b90600052602060002090600b0201600a01819055505050565b60068181548110611ef457600080fd5b906000526020600020016000915054906101000a900473ffffffffffffffffffffffffffffffffffffffff1681565b60008183611f319190612e08565b905092915050565b60008183611f479190612e3c565b905092915050565b508054611f5b9061259e565b6000825580601f10611f6d5750611f8c565b601f016020900490600052602060002090810190611f8b919061209b565b5b50565b50600081556001016000815560010160009055565b60405180610120016040528060006002811115611fc457611fc3612151565b5b8152602001600081526020016000815260200160008152602001600073ffffffffffffffffffffffffffffffffffffffff1681526020016060815260200161200a6120b8565b815260200160008152602001600081525090565b826003810192821561208a579160200282015b828111156120895782518260006101000a81548173ffffffffffffffffffffffffffffffffffffffff021916908373ffffffffffffffffffffffffffffffffffffffff16021790555091602001919060010190612031565b5b509050612097919061209b565b5090565b5b808211156120b457600081600090555060010161209c565b5090565b6040518060600160405280600390602082028036833780820191505090505090565b6000604051905090565b600080fd5b600080fd5b6000819050919050565b612101816120ee565b811461210c57600080fd5b50565b60008135905061211e816120f8565b92915050565b60006020828403121561213a576121396120e4565b5b60006121488482850161210f565b91505092915050565b7f4e487b7100000000000000000000000000000000000000000000000000000000600052602160045260246000fd5b6003811061219157612190612151565b5b50565b60008190506121a282612180565b919050565b60006121b282612194565b9050919050565b6121c2816121a7565b82525050565b6121d1816120ee565b82525050565b600073ffffffffffffffffffffffffffffffffffffffff82169050919050565b6000612202826121d7565b9050919050565b612212816121f7565b82525050565b600081519050919050565b600082825260208201905092915050565b60005b83811015612252578082015181840152602081019050612237565b60008484015250505050565b6000601f19601f8301169050919050565b600061227a82612218565b6122848185612223565b9350612294818560208601612234565b61229d8161225e565b840191505092915050565b6000610100820190506122be600083018b6121b9565b6122cb602083018a6121c8565b6122d860408301896121c8565b6122e560608301886121c8565b6122f26080830187612209565b81810360a0830152612304818661226f565b905061231360c08301856121c8565b61232060e08301846121c8565b9998505050505050505050565b600060208201905061234260008301846121c8565b92915050565b600060208201905061235d60008301846121b9565b92915050565b600061236e826121d7565b9050919050565b61237e81612363565b811461238957600080fd5b50565b60008135905061239b81612375565b92915050565b600080fd5b600080fd5b7f4e487b7100000000000000000000000000000000000000000000000000000000600052604160045260246000fd5b6123e38261225e565b810181811067ffffffffffffffff82111715612402576124016123ab565b5b80604052505050565b60006124156120da565b905061242182826123da565b919050565b600067ffffffffffffffff821115612441576124406123ab565b5b61244a8261225e565b9050602081019050919050565b82818337600083830152505050565b600061247961247484612426565b61240b565b905082815260208101848484011115612495576124946123a6565b5b6124a0848285612457565b509392505050565b600082601f8301126124bd576124bc6123a1565b5b81356124cd848260208601612466565b91505092915050565b6000806000606084860312156124ef576124ee6120e4565b5b60006124fd8682870161210f565b935050602061250e8682870161238c565b925050604084013567ffffffffffffffff81111561252f5761252e6120e9565b5b61253b868287016124a8565b9150509250925092565b61254e81612363565b82525050565b60006020820190506125696000830184612545565b92915050565b7f4e487b7100000000000000000000000000000000000000000000000000000000600052602260045260246000fd5b600060028204905060018216806125b657607f821691505b6020821081036125c9576125c861256f565b5b50919050565b7f4e487b7100000000000000000000000000000000000000000000000000000000600052603260045260246000fd5b600082825260208201905092915050565b7f596f7520617265206e6f7420746865206f776e6572206f66207468697320636f60008201527f6e74726163740000000000000000000000000000000000000000000000000000602082015250565b600061266b6026836125fe565b91506126768261260f565b604082019050919050565b6000602082019050818103600083015261269a8161265e565b9050919050565b7f596f752063616e27742063616c6c20746869732066756e6374696f6e20696e2060008201527f63757272656e7420737461746500000000000000000000000000000000000000602082015250565b60006126fd602d836125fe565b9150612708826126a1565b604082019050919050565b6000602082019050818103600083015261272c816126f0565b9050919050565b7f4e487b7100000000000000000000000000000000000000000000000000000000600052603160045260246000fd5b7f4e487b7100000000000000000000000000000000000000000000000000000000600052601160045260246000fd5b600061279c826120ee565b91507fffffffffffffffffffffffffffffffffffffffffffffffffffffffffffffffff82036127ce576127cd612762565b5b600182019050919050565b7f596f75206861766520616c72656164792061646465642074686520657468657260008201527f7320696e2074686520636f6e747261637427732062616c616e63650000000000602082015250565b6000612835603b836125fe565b9150612840826127d9565b604082019050919050565b6000602082019050818103600083015261286481612828565b9050919050565b7f416464206d6f726520616d6f756e7420746f2074686520636f6e747261637400600082015250565b60006128a1601f836125fe565b91506128ac8261286b565b602082019050919050565b600060208201905081810360008301526128d081612894565b9050919050565b7f436f6e747261637420646f65736e277420686176652074686973206d7563682060008201527f616d6f756e74206f662065746865727300000000000000000000000000000000602082015250565b60006129336030836125fe565b915061293e826128d7565b604082019050919050565b6000602082019050818103600083015261296281612926565b9050919050565b6000819050919050565b600061298e612989612984846121d7565b612969565b6121d7565b9050919050565b60006129a082612973565b9050919050565b60006129b282612995565b9050919050565b6129c2816129a7565b82525050565b60008190508160005260206000209050919050565b600081546129ea8161259e565b6129f48186612223565b94506001821660008114612a0f5760018114612a2557612a58565b60ff198316865281151560200286019350612a58565b612a2e856129c8565b60005b83811015612a5057815481890152600182019150602081019050612a31565b808801955050505b50505092915050565b6000606082019050612a7660008301866129b9565b612a8360208301856121c8565b8181036040830152612a9581846129dd565b9050949350505050565b6000604082019050612ab460008301856129b9565b612ac160208301846121c8565b9392505050565b60006020601f8301049050919050565b600082821b905092915050565b600060088302612b157fffffffffffffffffffffffffffffffffffffffffffffffffffffffffffffffff82612ad8565b612b1f8683612ad8565b95508019841693508086168417925050509392505050565b6000612b52612b4d612b48846120ee565b612969565b6120ee565b9050919050565b6000819050919050565b612b6c83612b37565b612b80612b7882612b59565b848454612ae5565b825550505050565b600090565b612b95612b88565b612ba0818484612b63565b505050565b5b81811015612bc457612bb9600082612b8d565b600181019050612ba6565b5050565b601f821115612c0957612bda816129c8565b612be384612ac8565b81016020851015612bf2578190505b612c06612bfe85612ac8565b830182612ba5565b50505b505050565b600082821c905092915050565b6000612c2c60001984600802612c0e565b1980831691505092915050565b6000612c458383612c1b565b9150826002028217905092915050565b612c5e82612218565b67ffffffffffffffff811115612c7757612c766123ab565b5b612c81825461259e565b612c8c828285612bc8565b600060209050601f831160018114612cbf5760008415612cad578287015190505b612cb78582612c39565b865550612d1f565b601f198416612ccd866129c8565b60005b82811015612cf557848901518255600182019150602085019450602081019050612cd0565b86831015612d125784890151612d0e601f891682612c1b565b8355505b6001600288020188555050505b505050505050565b6000604082019050612d3c6000830185612545565b612d4960208301846121c8565b9392505050565b7f596f75206861766520616c7265616479206761766520796f757220617070726f60008201527f76616c206f722072656a656374696f6e20666f722074686973207472616e736160208201527f6374696f6e000000000000000000000000000000000000000000000000000000604082015250565b6000612dd26045836125fe565b9150612ddd82612d50565b606082019050919050565b60006020820190508181036000830152612e0181612dc5565b9050919050565b6000612e13826120ee565b9150612e1e836120ee565b9250828201905080821115612e3657612e35612762565b5b92915050565b6000612e47826120ee565b9150612e52836120ee565b9250828203905081811115612e6a57612e69612762565b5b9291505056fea2646970667358221220cc36e38f474fa9d979b7cf85a3969948e539aa7ed7a2151d0237ef17eec2dc5e64736f6c63430008120033",
  "linkReferences": {},
  "deployedLinkReferences": {}
}