{
  "_format": "hh-sol-artifact-1",
  "contractName": "Supply_Chain",
  "sourceName": "contracts/Supply_Chain.sol",
  "abi": [
    {
      "inputs": [],
      "stateMutability": "nonpayable",
      "type": "constructor"
    },
    {
      "anonymous": false,
      "inputs": [
        {
          "indexed": false,
          "internalType": "uint256",
          "name": "Track",
          "type": "uint256"
        },
        {
          "indexed": false,
          "internalType": "string",
          "name": "Name",
          "type": "string"
        },
        {
          "indexed": false,
          "internalType": "uint256",
          "name": "Quantity",
          "type": "uint256"
        }
      ],
      "name": "inWareHouse",
      "type": "event"
    },
    {
      "anonymous": false,
      "inputs": [
        {
          "indexed": false,
          "internalType": "uint256",
          "name": "Track",
          "type": "uint256"
        },
        {
          "indexed": false,
          "internalType": "string",
          "name": "Name",
          "type": "string"
        }
      ],
      "name": "productPurchased",
      "type": "event"
    },
    {
      "inputs": [
        {
          "internalType": "uint256",
          "name": "id",
          "type": "uint256"
        },
        {
          "internalType": "uint256",
          "name": "_carrierFee",
          "type": "uint256"
        }
      ],
      "name": "approve_availability",
      "outputs": [],
      "stateMutability": "nonpayable",
      "type": "function"
    },
    {
      "inputs": [
        {
          "internalType": "uint256",
          "name": "id",
          "type": "uint256"
        }
      ],
      "name": "assign_Carrier",
      "outputs": [],
      "stateMutability": "nonpayable",
      "type": "function"
    },
    {
      "inputs": [
        {
          "internalType": "uint256",
          "name": "id",
          "type": "uint256"
        }
      ],
      "name": "assign_CarrierToWareHouse",
      "outputs": [],
      "stateMutability": "nonpayable",
      "type": "function"
    },
    {
      "inputs": [
        {
          "internalType": "uint256",
          "name": "id",
          "type": "uint256"
        }
      ],
      "name": "buy_item",
      "outputs": [],
      "stateMutability": "payable",
      "type": "function"
    },
    {
      "inputs": [
        {
          "internalType": "uint256",
          "name": "id",
          "type": "uint256"
        }
      ],
      "name": "check_State",
      "outputs": [
        {
          "internalType": "enum Supply_Chain.State",
          "name": "",
          "type": "uint8"
        }
      ],
      "stateMutability": "view",
      "type": "function"
    },
    {
      "inputs": [
        {
          "internalType": "string",
          "name": "_name",
          "type": "string"
        },
        {
          "internalType": "uint256",
          "name": "_quantity",
          "type": "uint256"
        },
        {
          "internalType": "string",
          "name": "_otherDetails",
          "type": "string"
        }
      ],
      "name": "check_availability",
      "outputs": [],
      "stateMutability": "nonpayable",
      "type": "function"
    },
    {
      "inputs": [
        {
          "internalType": "uint256",
          "name": "id",
          "type": "uint256"
        }
      ],
      "name": "delivered_by_carrier",
      "outputs": [],
      "stateMutability": "nonpayable",
      "type": "function"
    },
    {
      "inputs": [],
      "name": "getBalance",
      "outputs": [
        {
          "internalType": "uint256",
          "name": "",
          "type": "uint256"
        }
      ],
      "stateMutability": "view",
      "type": "function"
    },
    {
      "inputs": [
        {
          "internalType": "uint256",
          "name": "id",
          "type": "uint256"
        }
      ],
      "name": "item_delivered",
      "outputs": [],
      "stateMutability": "nonpayable",
      "type": "function"
    },
    {
      "inputs": [
        {
          "internalType": "uint256",
          "name": "id",
          "type": "uint256"
        }
      ],
      "name": "item_received",
      "outputs": [],
      "stateMutability": "nonpayable",
      "type": "function"
    },
    {
      "inputs": [
        {
          "internalType": "uint256",
          "name": "",
          "type": "uint256"
        }
      ],
      "name": "items_Requested",
      "outputs": [
        {
          "internalType": "enum Supply_Chain.State",
          "name": "currentState",
          "type": "uint8"
        },
        {
          "internalType": "uint256",
          "name": "trackingID",
          "type": "uint256"
        },
        {
          "internalType": "address",
          "name": "seller",
          "type": "address"
        },
        {
          "internalType": "address",
          "name": "buyer",
          "type": "address"
        },
        {
          "internalType": "string",
          "name": "name",
          "type": "string"
        },
        {
          "internalType": "string",
          "name": "description",
          "type": "string"
        },
        {
          "internalType": "uint256",
          "name": "quantity",
          "type": "uint256"
        },
        {
          "internalType": "uint256",
          "name": "priceEach",
          "type": "uint256"
        },
        {
          "internalType": "uint256",
          "name": "carrier_fee",
          "type": "uint256"
        },
        {
          "internalType": "uint256",
          "name": "totalAmount",
          "type": "uint256"
        },
        {
          "internalType": "address",
          "name": "carrier",
          "type": "address"
        }
      ],
      "stateMutability": "view",
      "type": "function"
    },
    {
      "inputs": [],
      "name": "owner",
      "outputs": [
        {
          "internalType": "address",
          "name": "",
          "type": "address"
        }
      ],
      "stateMutability": "view",
      "type": "function"
    },
    {
      "inputs": [
        {
          "internalType": "uint256",
          "name": "",
          "type": "uint256"
        }
      ],
      "name": "records",
      "outputs": [
        {
          "internalType": "enum Supply_Chain.State",
          "name": "currentState",
          "type": "uint8"
        },
        {
          "internalType": "uint256",
          "name": "trackingID",
          "type": "uint256"
        },
        {
          "internalType": "address",
          "name": "seller",
          "type": "address"
        },
        {
          "internalType": "address",
          "name": "buyer",
          "type": "address"
        },
        {
          "internalType": "string",
          "name": "name",
          "type": "string"
        },
        {
          "internalType": "string",
          "name": "description",
          "type": "string"
        },
        {
          "internalType": "uint256",
          "name": "quantity",
          "type": "uint256"
        },
        {
          "internalType": "uint256",
          "name": "priceEach",
          "type": "uint256"
        },
        {
          "internalType": "uint256",
          "name": "carrier_fee",
          "type": "uint256"
        },
        {
          "internalType": "uint256",
          "name": "totalAmount",
          "type": "uint256"
        },
        {
          "internalType": "address",
          "name": "carrier",
          "type": "address"
        }
      ],
      "stateMutability": "view",
      "type": "function"
    },
    {
      "inputs": [
        {
          "internalType": "string",
          "name": "_name",
          "type": "string"
        },
        {
          "internalType": "string",
          "name": "_description",
          "type": "string"
        },
        {
          "internalType": "uint256",
          "name": "_quantity",
          "type": "uint256"
        },
        {
          "internalType": "uint256",
          "name": "_priceEach",
          "type": "uint256"
        }
      ],
      "name": "register_product",
      "outputs": [],
      "stateMutability": "payable",
      "type": "function"
    },
    {
      "inputs": [
        {
          "internalType": "uint256",
          "name": "id",
          "type": "uint256"
        }
      ],
      "name": "stock_in_warehouse",
      "outputs": [],
      "stateMutability": "nonpayable",
      "type": "function"
    },
    {
      "inputs": [
        {
          "internalType": "string",
          "name": "",
          "type": "string"
        }
      ],
      "name": "wareHouse",
      "outputs": [
        {
          "internalType": "enum Supply_Chain.State",
          "name": "currentState",
          "type": "uint8"
        },
        {
          "internalType": "uint256",
          "name": "trackingID",
          "type": "uint256"
        },
        {
          "internalType": "address",
          "name": "seller",
          "type": "address"
        },
        {
          "internalType": "address",
          "name": "buyer",
          "type": "address"
        },
        {
          "internalType": "string",
          "name": "name",
          "type": "string"
        },
        {
          "internalType": "string",
          "name": "description",
          "type": "string"
        },
        {
          "internalType": "uint256",
          "name": "quantity",
          "type": "uint256"
        },
        {
          "internalType": "uint256",
          "name": "priceEach",
          "type": "uint256"
        },
        {
          "internalType": "uint256",
          "name": "carrier_fee",
          "type": "uint256"
        },
        {
          "internalType": "uint256",
          "name": "totalAmount",
          "type": "uint256"
        },
        {
          "internalType": "address",
          "name": "carrier",
          "type": "address"
        }
      ],
      "stateMutability": "view",
      "type": "function"
    }
  ],
  "bytecode": "0x6080604052600080556000600155600060035534801561001e57600080fd5b5033600260006101000a81548173ffffffffffffffffffffffffffffffffffffffff021916908373ffffffffffffffffffffffffffffffffffffffff16021790555061321c8061006f6000396000f3fe6080604052600436106100f35760003560e01c8063909f960c1161008a578063db610f4611610059578063db610f4614610349578063eb56648014610372578063fca44cae1461039b578063fe3a51d3146103c4576100f3565b8063909f960c14610291578063aca10ba2146102ce578063c8826eed146102f7578063d6861ec814610320576100f3565b80634abb39cc116100c65780634abb39cc146101cd5780636acab4a1146102145780638311e0fc1461023d5780638da5cb5b14610266576100f3565b806312065fe0146100f85780631663d06114610123578063226daf5e1461016a5780633446106714610186575b600080fd5b34801561010457600080fd5b5061010d6103e0565b60405161011a9190612129565b60405180910390f35b34801561012f57600080fd5b5061014a6004803603810190610145919061229e565b6103e8565b6040516101619b9a9998979695949392919061241e565b60405180910390f35b610184600480360381019061017f9190612503565b6105d5565b005b34801561019257600080fd5b506101ad60048036038101906101a891906125a2565b610838565b6040516101c49b9a9998979695949392919061241e565b60405180910390f35b3480156101d957600080fd5b506101f460048036038101906101ef91906125a2565b610a0f565b60405161020b9b9a9998979695949392919061241e565b60405180910390f35b34801561022057600080fd5b5061023b600480360381019061023691906125a2565b610be6565b005b34801561024957600080fd5b50610264600480360381019061025f91906125a2565b610d5a565b005b34801561027257600080fd5b5061027b610ece565b60405161028891906125cf565b60405180910390f35b34801561029d57600080fd5b506102b860048036038101906102b391906125a2565b610ef4565b6040516102c591906125ea565b60405180910390f35b3480156102da57600080fd5b506102f560048036038101906102f091906125a2565b610f21565b005b34801561030357600080fd5b5061031e60048036038101906103199190612605565b6111dc565b005b34801561032c57600080fd5b50610347600480360381019061034291906125a2565b611357565b005b34801561035557600080fd5b50610370600480360381019061036b91906125a2565b61147c565b005b34801561037e57600080fd5b5061039960048036038101906103949190612645565b6115a1565b005b3480156103a757600080fd5b506103c260048036038101906103bd91906125a2565b611947565b005b6103de60048036038101906103d991906125a2565b611de6565b005b600047905090565b6005818051602081018201805184825260208301602085012081835280955050505050506000915090508060000160009054906101000a900460ff16908060010154908060020160009054906101000a900473ffffffffffffffffffffffffffffffffffffffff16908060030160009054906101000a900473ffffffffffffffffffffffffffffffffffffffff1690806004018054610486906126ff565b80601f01602080910402602001604051908101604052809291908181526020018280546104b2906126ff565b80156104ff5780601f106104d4576101008083540402835291602001916104ff565b820191906000526020600020905b8154815290600101906020018083116104e257829003601f168201915b505050505090806005018054610514906126ff565b80601f0160208091040260200160405190810160405280929190818152602001828054610540906126ff565b801561058d5780601f106105625761010080835404028352916020019161058d565b820191906000526020600020905b81548152906001019060200180831161057057829003601f168201915b50505050509080600601549080600701549080600801549080600901549080600a0160009054906101000a900473ffffffffffffffffffffffffffffffffffffffff1690508b565b6105dd612062565b6000816000019060078111156105f6576105f56122e7565b5b9081600781111561060a576106096122e7565b5b8152505060005481602001818152505033816040019073ffffffffffffffffffffffffffffffffffffffff16908173ffffffffffffffffffffffffffffffffffffffff1681525050848160800181905250838160a00181905250828160c0018181525050818160e0018181525050346003600082825461068a919061275f565b92505081905550348161010001818152505080600460008054815260200190815260200160002060008201518160000160006101000a81548160ff021916908360078111156106dc576106db6122e7565b5b02179055506020820151816001015560408201518160020160006101000a81548173ffffffffffffffffffffffffffffffffffffffff021916908373ffffffffffffffffffffffffffffffffffffffff16021790555060608201518160030160006101000a81548173ffffffffffffffffffffffffffffffffffffffff021916908373ffffffffffffffffffffffffffffffffffffffff160217905550608082015181600401908161078e919061293f565b5060a08201518160050190816107a4919061293f565b5060c0820151816006015560e082015181600701556101008201518160080155610120820151816009015561014082015181600a0160006101000a81548173ffffffffffffffffffffffffffffffffffffffff021916908373ffffffffffffffffffffffffffffffffffffffff16021790555090505060008081548092919061082c90612a11565b91905055505050505050565b60046020528060005260406000206000915090508060000160009054906101000a900460ff16908060010154908060020160009054906101000a900473ffffffffffffffffffffffffffffffffffffffff16908060030160009054906101000a900473ffffffffffffffffffffffffffffffffffffffff16908060040180546108c0906126ff565b80601f01602080910402602001604051908101604052809291908181526020018280546108ec906126ff565b80156109395780601f1061090e57610100808354040283529160200191610939565b820191906000526020600020905b81548152906001019060200180831161091c57829003601f168201915b50505050509080600501805461094e906126ff565b80601f016020809104026020016040519081016040528092919081815260200182805461097a906126ff565b80156109c75780601f1061099c576101008083540402835291602001916109c7565b820191906000526020600020905b8154815290600101906020018083116109aa57829003601f168201915b50505050509080600601549080600701549080600801549080600901549080600a0160009054906101000a900473ffffffffffffffffffffffffffffffffffffffff1690508b565b60066020528060005260406000206000915090508060000160009054906101000a900460ff16908060010154908060020160009054906101000a900473ffffffffffffffffffffffffffffffffffffffff16908060030160009054906101000a900473ffffffffffffffffffffffffffffffffffffffff1690806004018054610a97906126ff565b80601f0160208091040260200160405190810160405280929190818152602001828054610ac3906126ff565b8015610b105780601f10610ae557610100808354040283529160200191610b10565b820191906000526020600020905b815481529060010190602001808311610af357829003601f168201915b505050505090806005018054610b25906126ff565b80601f0160208091040260200160405190810160405280929190818152602001828054610b51906126ff565b8015610b9e5780601f10610b7357610100808354040283529160200191610b9e565b820191906000526020600020905b815481529060010190602001808311610b8157829003601f168201915b50505050509080600601549080600701549080600801549080600901549080600a0160009054906101000a900473ffffffffffffffffffffffffffffffffffffffff1690508b565b600181816007811115610bfc57610bfb6122e7565b5b6004600083815260200190815260200160002060000160009054906101000a900460ff166007811115610c3257610c316122e7565b5b14610c72576040517f08c379a0000000000000000000000000000000000000000000000000000000008152600401610c6990612acb565b60405180910390fd5b3373ffffffffffffffffffffffffffffffffffffffff1660046000838152602001908152602001600020600a0160009054906101000a900473ffffffffffffffffffffffffffffffffffffffff1673ffffffffffffffffffffffffffffffffffffffff1614610d16576040517f08c379a0000000000000000000000000000000000000000000000000000000008152600401610d0d90612b5d565b60405180910390fd5b60026004600085815260200190815260200160002060000160006101000a81548160ff02191690836007811115610d5057610d4f6122e7565b5b0217905550505050565b600181816007811115610d7057610d6f6122e7565b5b6006600083815260200190815260200160002060000160009054906101000a900460ff166007811115610da657610da56122e7565b5b14610de6576040517f08c379a0000000000000000000000000000000000000000000000000000000008152600401610ddd90612acb565b60405180910390fd5b3373ffffffffffffffffffffffffffffffffffffffff1660066000858152602001908152602001600020600a0160009054906101000a900473ffffffffffffffffffffffffffffffffffffffff1673ffffffffffffffffffffffffffffffffffffffff1614610e8a576040517f08c379a0000000000000000000000000000000000000000000000000000000008152600401610e8190612bef565b60405180910390fd5b60046006600085815260200190815260200160002060000160006101000a81548160ff02191690836007811115610ec457610ec36122e7565b5b0217905550505050565b600260009054906101000a900473ffffffffffffffffffffffffffffffffffffffff1681565b60006004600083815260200190815260200160002060000160009054906101000a900460ff169050919050565b803373ffffffffffffffffffffffffffffffffffffffff166006600083815260200190815260200160002060030160009054906101000a900473ffffffffffffffffffffffffffffffffffffffff1673ffffffffffffffffffffffffffffffffffffffff1614610fc6576040517f08c379a0000000000000000000000000000000000000000000000000000000008152600401610fbd90612c81565b60405180910390fd5b600482816007811115610fdc57610fdb6122e7565b5b6006600083815260200190815260200160002060000160009054906101000a900460ff166007811115611012576110116122e7565b5b14611052576040517f08c379a000000000000000000000000000000000000000000000000000000000815260040161104990612acb565b60405180910390fd5b60066000858152602001908152602001600020600901546003600082825461107a9190612ca1565b925050819055506006600085815260200190815260200160002060080154600360008282546110a99190612ca1565b925050819055506006600085815260200190815260200160002060020160009054906101000a900473ffffffffffffffffffffffffffffffffffffffff1673ffffffffffffffffffffffffffffffffffffffff166108fc60066000878152602001908152602001600020600901549081150290604051600060405180830381858888f19350505050158015611142573d6000803e3d6000fd5b5060066000858152602001908152602001600020600a0160009054906101000a900473ffffffffffffffffffffffffffffffffffffffff1673ffffffffffffffffffffffffffffffffffffffff166108fc60066000878152602001908152602001600020600801549081150290604051600060405180830381858888f193505050501580156111d5573d6000803e3d6000fd5b5050505050565b600260009054906101000a900473ffffffffffffffffffffffffffffffffffffffff1673ffffffffffffffffffffffffffffffffffffffff163373ffffffffffffffffffffffffffffffffffffffff161461126c576040517f08c379a000000000000000000000000000000000000000000000000000000000815260040161126390612d47565b60405180910390fd5b600582816007811115611282576112816122e7565b5b6006600083815260200190815260200160002060000160009054906101000a900460ff1660078111156112b8576112b76122e7565b5b146112f8576040517f08c379a00000000000000000000000000000000000000000000000000000000081526004016112ef90612acb565b60405180910390fd5b826006600086815260200190815260200160002060080181905550600680600086815260200190815260200160002060000160006101000a81548160ff0219169083600781111561134c5761134b6122e7565b5b021790555050505050565b60008181600781111561136d5761136c6122e7565b5b6004600083815260200190815260200160002060000160009054906101000a900460ff1660078111156113a3576113a26122e7565b5b146113e3576040517f08c379a00000000000000000000000000000000000000000000000000000000081526004016113da90612acb565b60405180910390fd5b3360046000858152602001908152602001600020600a0160006101000a81548173ffffffffffffffffffffffffffffffffffffffff021916908373ffffffffffffffffffffffffffffffffffffffff16021790555060016004600085815260200190815260200160002060000160006101000a81548160ff02191690836007811115611472576114716122e7565b5b0217905550505050565b600781816007811115611492576114916122e7565b5b6006600083815260200190815260200160002060000160009054906101000a900460ff1660078111156114c8576114c76122e7565b5b14611508576040517f08c379a00000000000000000000000000000000000000000000000000000000081526004016114ff90612acb565b60405180910390fd5b3360066000858152602001908152602001600020600a0160006101000a81548173ffffffffffffffffffffffffffffffffffffffff021916908373ffffffffffffffffffffffffffffffffffffffff16021790555060016006600085815260200190815260200160002060000160006101000a81548160ff02191690836007811115611597576115966122e7565b5b0217905550505050565b828260006005836040516115b59190612da3565b90815260200160405180910390206006015411611607576040517f08c379a00000000000000000000000000000000000000000000000000000000081526004016115fe90612e06565b60405180910390fd5b806005836040516116189190612da3565b908152602001604051809103902060060154101561166b576040517f08c379a000000000000000000000000000000000000000000000000000000000815260040161166290612e98565b60405180910390fd5b611673612062565b60058160000190600781111561168c5761168b6122e7565b5b908160078111156116a05761169f6122e7565b5b815250506001548160200181815250506005866040516116c09190612da3565b908152602001604051809103902060020160009054906101000a900473ffffffffffffffffffffffffffffffffffffffff16816040019073ffffffffffffffffffffffffffffffffffffffff16908173ffffffffffffffffffffffffffffffffffffffff168152505033816060019073ffffffffffffffffffffffffffffffffffffffff16908173ffffffffffffffffffffffffffffffffffffffff1681525050858160800181905250838160a00181905250848160c001818152505060058660405161178d9190612da3565b9081526020016040518091039020600701548160e00181815250508060066000600154815260200190815260200160002060008201518160000160006101000a81548160ff021916908360078111156117e9576117e86122e7565b5b02179055506020820151816001015560408201518160020160006101000a81548173ffffffffffffffffffffffffffffffffffffffff021916908373ffffffffffffffffffffffffffffffffffffffff16021790555060608201518160030160006101000a81548173ffffffffffffffffffffffffffffffffffffffff021916908373ffffffffffffffffffffffffffffffffffffffff160217905550608082015181600401908161189b919061293f565b5060a08201518160050190816118b1919061293f565b5060c0820151816006015560e082015181600701556101008201518160080155610120820151816009015561014082015181600a0160006101000a81548173ffffffffffffffffffffffffffffffffffffffff021916908373ffffffffffffffffffffffffffffffffffffffff1602179055509050506001600081548092919061193a90612a11565b9190505550505050505050565b60028181600781111561195d5761195c6122e7565b5b6004600083815260200190815260200160002060000160009054906101000a900460ff166007811115611993576119926122e7565b5b146119d3576040517f08c379a00000000000000000000000000000000000000000000000000000000081526004016119ca90612acb565b60405180910390fd5b600260009054906101000a900473ffffffffffffffffffffffffffffffffffffffff1673ffffffffffffffffffffffffffffffffffffffff163373ffffffffffffffffffffffffffffffffffffffff1614611a63576040517f08c379a0000000000000000000000000000000000000000000000000000000008152600401611a5a90612d47565b60405180910390fd5b60036004600085815260200190815260200160002060000160006101000a81548160ff02191690836007811115611a9d57611a9c6122e7565b5b021790555060046000848152602001908152602001600020600560046000868152602001908152602001600020600401604051611ada9190612f3b565b90815260200160405180910390206000820160009054906101000a900460ff168160000160006101000a81548160ff02191690836007811115611b2057611b1f6122e7565b5b0217905550600182015481600101556002820160009054906101000a900473ffffffffffffffffffffffffffffffffffffffff168160020160006101000a81548173ffffffffffffffffffffffffffffffffffffffff021916908373ffffffffffffffffffffffffffffffffffffffff1602179055506003820160009054906101000a900473ffffffffffffffffffffffffffffffffffffffff168160030160006101000a81548173ffffffffffffffffffffffffffffffffffffffff021916908373ffffffffffffffffffffffffffffffffffffffff16021790555060048201816004019081611c119190612f68565b5060058201816005019081611c269190612f68565b5060068201548160060155600782015481600701556008820154816008015560098201548160090155600a820160009054906101000a900473ffffffffffffffffffffffffffffffffffffffff1681600a0160006101000a81548173ffffffffffffffffffffffffffffffffffffffff021916908373ffffffffffffffffffffffffffffffffffffffff160217905550905050600460008481526020019081526020016000206008015460036000828254611ce19190612ca1565b9250508190555060046000848152602001908152602001600020600a0160009054906101000a900473ffffffffffffffffffffffffffffffffffffffff1673ffffffffffffffffffffffffffffffffffffffff166108fc60046000868152602001908152602001600020600801549081150290604051600060405180830381858888f19350505050158015611d7a573d6000803e3d6000fd5b507fbe39f28fdaf3c8ea3c007eeb36eda0e8bf0f351085c7a683b7dd58d83b2d67cc83600460008681526020019081526020016000206004016004600087815260200190815260200160002060060154604051611dd9939291906130d4565b60405180910390a1505050565b600681816007811115611dfc57611dfb6122e7565b5b6006600083815260200190815260200160002060000160009054906101000a900460ff166007811115611e3257611e316122e7565b5b14611e72576040517f08c379a0000000000000000000000000000000000000000000000000000000008152600401611e6990612acb565b60405180910390fd5b823373ffffffffffffffffffffffffffffffffffffffff166006600083815260200190815260200160002060030160009054906101000a900473ffffffffffffffffffffffffffffffffffffffff1673ffffffffffffffffffffffffffffffffffffffff1614611f17576040517f08c379a0000000000000000000000000000000000000000000000000000000008152600401611f0e90612c81565b60405180910390fd5b600660008581526020019081526020016000206008015460066000868152602001908152602001600020600601546006600087815260200190815260200160002060070154611f669190613112565b611f70919061275f565b341015611fb2576040517f08c379a0000000000000000000000000000000000000000000000000000000008152600401611fa9906131c6565b60405180910390fd5b3460036000828254611fc4919061275f565b92505081905550600660008581526020019081526020016000206006015460066000868152602001908152602001600020600701546120039190613112565b600660008681526020019081526020016000206009018190555060076006600086815260200190815260200160002060000160006101000a81548160ff02191690836007811115612057576120566122e7565b5b021790555050505050565b60405180610160016040528060006007811115612082576120816122e7565b5b815260200160008152602001600073ffffffffffffffffffffffffffffffffffffffff168152602001600073ffffffffffffffffffffffffffffffffffffffff168152602001606081526020016060815260200160008152602001600081526020016000815260200160008152602001600073ffffffffffffffffffffffffffffffffffffffff1681525090565b6000819050919050565b61212381612110565b82525050565b600060208201905061213e600083018461211a565b92915050565b6000604051905090565b600080fd5b600080fd5b600080fd5b600080fd5b6000601f19601f8301169050919050565b7f4e487b7100000000000000000000000000000000000000000000000000000000600052604160045260246000fd5b6121ab82612162565b810181811067ffffffffffffffff821117156121ca576121c9612173565b5b80604052505050565b60006121dd612144565b90506121e982826121a2565b919050565b600067ffffffffffffffff82111561220957612208612173565b5b61221282612162565b9050602081019050919050565b82818337600083830152505050565b600061224161223c846121ee565b6121d3565b90508281526020810184848401111561225d5761225c61215d565b5b61226884828561221f565b509392505050565b600082601f83011261228557612284612158565b5b813561229584826020860161222e565b91505092915050565b6000602082840312156122b4576122b361214e565b5b600082013567ffffffffffffffff8111156122d2576122d1612153565b5b6122de84828501612270565b91505092915050565b7f4e487b7100000000000000000000000000000000000000000000000000000000600052602160045260246000fd5b60088110612327576123266122e7565b5b50565b600081905061233882612316565b919050565b60006123488261232a565b9050919050565b6123588161233d565b82525050565b600073ffffffffffffffffffffffffffffffffffffffff82169050919050565b60006123898261235e565b9050919050565b6123998161237e565b82525050565b600081519050919050565b600082825260208201905092915050565b60005b838110156123d95780820151818401526020810190506123be565b60008484015250505050565b60006123f08261239f565b6123fa81856123aa565b935061240a8185602086016123bb565b61241381612162565b840191505092915050565b600061016082019050612434600083018e61234f565b612441602083018d61211a565b61244e604083018c612390565b61245b606083018b612390565b818103608083015261246d818a6123e5565b905081810360a083015261248181896123e5565b905061249060c083018861211a565b61249d60e083018761211a565b6124ab61010083018661211a565b6124b961012083018561211a565b6124c7610140830184612390565b9c9b505050505050505050505050565b6124e081612110565b81146124eb57600080fd5b50565b6000813590506124fd816124d7565b92915050565b6000806000806080858703121561251d5761251c61214e565b5b600085013567ffffffffffffffff81111561253b5761253a612153565b5b61254787828801612270565b945050602085013567ffffffffffffffff81111561256857612567612153565b5b61257487828801612270565b9350506040612585878288016124ee565b9250506060612596878288016124ee565b91505092959194509250565b6000602082840312156125b8576125b761214e565b5b60006125c6848285016124ee565b91505092915050565b60006020820190506125e46000830184612390565b92915050565b60006020820190506125ff600083018461234f565b92915050565b6000806040838503121561261c5761261b61214e565b5b600061262a858286016124ee565b925050602061263b858286016124ee565b9150509250929050565b60008060006060848603121561265e5761265d61214e565b5b600084013567ffffffffffffffff81111561267c5761267b612153565b5b61268886828701612270565b9350506020612699868287016124ee565b925050604084013567ffffffffffffffff8111156126ba576126b9612153565b5b6126c686828701612270565b9150509250925092565b7f4e487b7100000000000000000000000000000000000000000000000000000000600052602260045260246000fd5b6000600282049050600182168061271757607f821691505b60208210810361272a576127296126d0565b5b50919050565b7f4e487b7100000000000000000000000000000000000000000000000000000000600052601160045260246000fd5b600061276a82612110565b915061277583612110565b925082820190508082111561278d5761278c612730565b5b92915050565b60008190508160005260206000209050919050565b60006020601f8301049050919050565b600082821b905092915050565b6000600883026127f57fffffffffffffffffffffffffffffffffffffffffffffffffffffffffffffffff826127b8565b6127ff86836127b8565b95508019841693508086168417925050509392505050565b6000819050919050565b600061283c61283761283284612110565b612817565b612110565b9050919050565b6000819050919050565b61285683612821565b61286a61286282612843565b8484546127c5565b825550505050565b600090565b61287f612872565b61288a81848461284d565b505050565b5b818110156128ae576128a3600082612877565b600181019050612890565b5050565b601f8211156128f3576128c481612793565b6128cd846127a8565b810160208510156128dc578190505b6128f06128e8856127a8565b83018261288f565b50505b505050565b600082821c905092915050565b6000612916600019846008026128f8565b1980831691505092915050565b600061292f8383612905565b9150826002028217905092915050565b6129488261239f565b67ffffffffffffffff81111561296157612960612173565b5b61296b82546126ff565b6129768282856128b2565b600060209050601f8311600181146129a95760008415612997578287015190505b6129a18582612923565b865550612a09565b601f1984166129b786612793565b60005b828110156129df578489015182556001820191506020850194506020810190506129ba565b868310156129fc57848901516129f8601f891682612905565b8355505b6001600288020188555050505b505050505050565b6000612a1c82612110565b91507fffffffffffffffffffffffffffffffffffffffffffffffffffffffffffffffff8203612a4e57612a4d612730565b5b600182019050919050565b7f66756e6374696f6e2063616e27742062652063616c6c6564206f6e206375727260008201527f656e742073746174650000000000000000000000000000000000000000000000602082015250565b6000612ab56029836123aa565b9150612ac082612a59565b604082019050919050565b60006020820190508181036000830152612ae481612aa8565b9050919050565b7f596f7520617265206e6f74207468652063617272696572206f6620746869732060008201527f70726f6475637400000000000000000000000000000000000000000000000000602082015250565b6000612b476027836123aa565b9150612b5282612aeb565b604082019050919050565b60006020820190508181036000830152612b7681612b3a565b9050919050565b7f596f75206172656e277420746865206361727269657220666f7220746869732060008201527f6974656d00000000000000000000000000000000000000000000000000000000602082015250565b6000612bd96024836123aa565b9150612be482612b7d565b604082019050919050565b60006020820190508181036000830152612c0881612bcc565b9050919050565b7f596f7520617265206e6f7420746865206275796572206f66207468697320697460008201527f656d000000000000000000000000000000000000000000000000000000000000602082015250565b6000612c6b6022836123aa565b9150612c7682612c0f565b604082019050919050565b60006020820190508181036000830152612c9a81612c5e565b9050919050565b6000612cac82612110565b9150612cb783612110565b9250828203905081811115612ccf57612cce612730565b5b92915050565b7f4f6e6c79206f776e65722063616e2063616c6c20746869732066756e6374696f60008201527f6e00000000000000000000000000000000000000000000000000000000000000602082015250565b6000612d316021836123aa565b9150612d3c82612cd5565b604082019050919050565b60006020820190508181036000830152612d6081612d24565b9050919050565b600081905092915050565b6000612d7d8261239f565b612d878185612d67565b9350612d978185602086016123bb565b80840191505092915050565b6000612daf8284612d72565b915081905092915050565b7f54686973204974656d206973206e6f7420696e2073746f636b00000000000000600082015250565b6000612df06019836123aa565b9150612dfb82612dba565b602082019050919050565b60006020820190508181036000830152612e1f81612de3565b9050919050565b7f596f752061726520747279696e6720746f20627579206d6f7265206974656d7360008201527f207468616e20696e2073746f636b000000000000000000000000000000000000602082015250565b6000612e82602e836123aa565b9150612e8d82612e26565b604082019050919050565b60006020820190508181036000830152612eb181612e75565b9050919050565b60008154612ec5816126ff565b612ecf8186612d67565b94506001821660008114612eea5760018114612eff57612f32565b60ff1983168652811515820286019350612f32565b612f0885612793565b60005b83811015612f2a57815481890152600182019150602081019050612f0b565b838801955050505b50505092915050565b6000612f478284612eb8565b915081905092915050565b600081549050612f61816126ff565b9050919050565b818103612f7657505061304e565b612f7f82612f52565b67ffffffffffffffff811115612f9857612f97612173565b5b612fa282546126ff565b612fad8282856128b2565b6000601f831160018114612fdc5760008415612fca578287015490505b612fd48582612923565b865550613047565b601f198416612fea87612793565b9650612ff586612793565b60005b8281101561301d57848901548255600182019150600185019450602081019050612ff8565b8683101561303a5784890154613036601f891682612905565b8355505b6001600288020188555050505b5050505050505b565b6000815461305d816126ff565b61306781866123aa565b945060018216600081146130825760018114613098576130cb565b60ff1983168652811515602002860193506130cb565b6130a185612793565b60005b838110156130c3578154818901526001820191506020810190506130a4565b808801955050505b50505092915050565b60006060820190506130e9600083018661211a565b81810360208301526130fb8185613050565b905061310a604083018461211a565b949350505050565b600061311d82612110565b915061312883612110565b925082820261313681612110565b9150828204841483151761314d5761314c612730565b5b5092915050565b7f596f7520686176656e277420706179656420656e6f75676820616d6f756e742060008201527f666f7220627579696e672074686973206974656d207570000000000000000000602082015250565b60006131b06037836123aa565b91506131bb82613154565b604082019050919050565b600060208201905081810360008301526131df816131a3565b905091905056fea2646970667358221220cedcb77f9741d16a2f78abca7c76d2a6f61b929b9f4462cf6a6a071567892ea964736f6c63430008120033",
  "linkReferences": {},
  "deployedLinkReferences": {}
}