{
  "_format": "hh-sol-artifact-1",
  "contractName": "DEX",
  "sourceName": "contracts/DEX.sol",
  "abi": [
    {
      "inputs": [
        {
          "internalType": "uint256",
          "name": "_quantityA",
          "type": "uint256"
        },
        {
          "internalType": "uint256",
          "name": "_priceA",
          "type": "uint256"
        },
        {
          "internalType": "uint256",
          "name": "_quantityB",
          "type": "uint256"
        },
        {
          "internalType": "uint256",
          "name": "_priceB",
          "type": "uint256"
        }
      ],
      "stateMutability": "nonpayable",
      "type": "constructor"
    },
    {
      "inputs": [],
      "name": "balance",
      "outputs": [
        {
          "internalType": "uint256",
          "name": "",
          "type": "uint256"
        }
      ],
      "stateMutability": "view",
      "type": "function"
    },
    {
      "inputs": [
        {
          "internalType": "uint256",
          "name": "id",
          "type": "uint256"
        }
      ],
      "name": "cancelOrder",
      "outputs": [],
      "stateMutability": "nonpayable",
      "type": "function"
    },
    {
      "inputs": [],
      "name": "counter",
      "outputs": [
        {
          "internalType": "uint256",
          "name": "",
          "type": "uint256"
        }
      ],
      "stateMutability": "view",
      "type": "function"
    },
    {
      "inputs": [],
      "name": "current_Price_A",
      "outputs": [
        {
          "internalType": "uint256",
          "name": "",
          "type": "uint256"
        }
      ],
      "stateMutability": "view",
      "type": "function"
    },
    {
      "inputs": [],
      "name": "current_Price_B",
      "outputs": [
        {
          "internalType": "uint256",
          "name": "",
          "type": "uint256"
        }
      ],
      "stateMutability": "view",
      "type": "function"
    },
    {
      "inputs": [
        {
          "internalType": "uint256",
          "name": "id",
          "type": "uint256"
        }
      ],
      "name": "executeOrder",
      "outputs": [],
      "stateMutability": "payable",
      "type": "function"
    },
    {
      "inputs": [],
      "name": "k",
      "outputs": [
        {
          "internalType": "uint256",
          "name": "",
          "type": "uint256"
        }
      ],
      "stateMutability": "view",
      "type": "function"
    },
    {
      "inputs": [
        {
          "internalType": "uint256",
          "name": "",
          "type": "uint256"
        }
      ],
      "name": "orderBook",
      "outputs": [
        {
          "internalType": "uint256",
          "name": "order_id",
          "type": "uint256"
        },
        {
          "internalType": "uint256",
          "name": "Tokens_A",
          "type": "uint256"
        },
        {
          "internalType": "uint256",
          "name": "Tokens_B",
          "type": "uint256"
        },
        {
          "internalType": "enum DEX.State",
          "name": "currentState",
          "type": "uint8"
        },
        {
          "internalType": "string",
          "name": "token",
          "type": "string"
        },
        {
          "internalType": "uint256",
          "name": "amount_To_Pay",
          "type": "uint256"
        },
        {
          "internalType": "uint256",
          "name": "amount_To_Receive",
          "type": "uint256"
        },
        {
          "internalType": "address",
          "name": "trader",
          "type": "address"
        }
      ],
      "stateMutability": "view",
      "type": "function"
    },
    {
      "inputs": [
        {
          "internalType": "address",
          "name": "",
          "type": "address"
        },
        {
          "internalType": "uint256",
          "name": "",
          "type": "uint256"
        }
      ],
      "name": "orderIds",
      "outputs": [
        {
          "internalType": "uint256",
          "name": "",
          "type": "uint256"
        }
      ],
      "stateMutability": "view",
      "type": "function"
    },
    {
      "inputs": [],
      "name": "owner",
      "outputs": [
        {
          "internalType": "address",
          "name": "",
          "type": "address"
        }
      ],
      "stateMutability": "view",
      "type": "function"
    },
    {
      "inputs": [],
      "name": "price_A",
      "outputs": [
        {
          "internalType": "uint256",
          "name": "",
          "type": "uint256"
        }
      ],
      "stateMutability": "view",
      "type": "function"
    },
    {
      "inputs": [],
      "name": "price_B",
      "outputs": [
        {
          "internalType": "uint256",
          "name": "",
          "type": "uint256"
        }
      ],
      "stateMutability": "view",
      "type": "function"
    },
    {
      "inputs": [
        {
          "internalType": "uint256",
          "name": "_count",
          "type": "uint256"
        }
      ],
      "name": "purchaseToken_A",
      "outputs": [],
      "stateMutability": "nonpayable",
      "type": "function"
    },
    {
      "inputs": [
        {
          "internalType": "uint256",
          "name": "_count",
          "type": "uint256"
        }
      ],
      "name": "purchaseToken_B",
      "outputs": [],
      "stateMutability": "nonpayable",
      "type": "function"
    },
    {
      "inputs": [],
      "name": "quantity_A",
      "outputs": [
        {
          "internalType": "uint256",
          "name": "",
          "type": "uint256"
        }
      ],
      "stateMutability": "view",
      "type": "function"
    },
    {
      "inputs": [],
      "name": "quantity_B",
      "outputs": [
        {
          "internalType": "uint256",
          "name": "",
          "type": "uint256"
        }
      ],
      "stateMutability": "view",
      "type": "function"
    },
    {
      "inputs": [
        {
          "internalType": "uint256",
          "name": "_count",
          "type": "uint256"
        }
      ],
      "name": "sellToken_A",
      "outputs": [],
      "stateMutability": "nonpayable",
      "type": "function"
    },
    {
      "inputs": [
        {
          "internalType": "uint256",
          "name": "_count",
          "type": "uint256"
        }
      ],
      "name": "sellToken_B",
      "outputs": [],
      "stateMutability": "nonpayable",
      "type": "function"
    },
    {
      "inputs": [
        {
          "internalType": "uint256",
          "name": "num_tokens",
          "type": "uint256"
        }
      ],
      "name": "trade_A_to_B",
      "outputs": [],
      "stateMutability": "nonpayable",
      "type": "function"
    },
    {
      "inputs": [
        {
          "internalType": "uint256",
          "name": "num_tokens",
          "type": "uint256"
        }
      ],
      "name": "trade_B_to_A",
      "outputs": [],
      "stateMutability": "nonpayable",
      "type": "function"
    },
    {
      "inputs": [
        {
          "internalType": "address",
          "name": "",
          "type": "address"
        }
      ],
      "name": "traderRecord",
      "outputs": [
        {
          "internalType": "uint256",
          "name": "num_Tokens_A",
          "type": "uint256"
        },
        {
          "internalType": "uint256",
          "name": "num_Tokens_B",
          "type": "uint256"
        }
      ],
      "stateMutability": "view",
      "type": "function"
    }
  ],
  "bytecode": "0x608060405260006007553480156200001657600080fd5b5060405162002ada38038062002ada83398181016040528101906200003c9190620000f7565b33600660006101000a81548173ffffffffffffffffffffffffffffffffffffffff021916908373ffffffffffffffffffffffffffffffffffffffff160217905550836001819055508260028190555081600381905550806004819055508184620000a7919062000198565b60058190555050505050620001e3565b600080fd5b6000819050919050565b620000d181620000bc565b8114620000dd57600080fd5b50565b600081519050620000f181620000c6565b92915050565b60008060008060808587031215620001145762000113620000b7565b5b60006200012487828801620000e0565b94505060206200013787828801620000e0565b93505060406200014a87828801620000e0565b92505060606200015d87828801620000e0565b91505092959194509250565b7f4e487b7100000000000000000000000000000000000000000000000000000000600052601160045260246000fd5b6000620001a582620000bc565b9150620001b283620000bc565b9250828202620001c281620000bc565b91508282048414831517620001dc57620001db62000169565b5b5092915050565b6128e780620001f36000396000f3fe60806040526004361061012a5760003560e01c8063a20b6e34116100ab578063bb07caa51161006f578063bb07caa5146103c6578063c9968ff0146103ef578063d7b34d531461041a578063dd3b31e014610458578063f382b7fc14610483578063fb9024a6146104ac5761012a565b8063a20b6e34146102d8578063a22006c31461031c578063b4f40c6114610345578063b58a432214610370578063b69ef8a81461039b5761012a565b8063785b2a4f116100f2578063785b2a4f146102025780638da5cb5b1461022b57806390ddbe3a1461025657806394f6113414610293578063a1efab15146102af5761012a565b806324f8d68e1461012f578063514fcac71461015a57806358b9d45b1461018357806361bc221a146101ac5780637606058c146101d7575b600080fd5b34801561013b57600080fd5b506101446104d7565b6040516101519190611de6565b60405180910390f35b34801561016657600080fd5b50610181600480360381019061017c9190611e32565b6104dd565b005b34801561018f57600080fd5b506101aa60048036038101906101a59190611e32565b610651565b005b3480156101b857600080fd5b506101c1610821565b6040516101ce9190611de6565b60405180910390f35b3480156101e357600080fd5b506101ec610827565b6040516101f99190611de6565b60405180910390f35b34801561020e57600080fd5b5061022960048036038101906102249190611e32565b610831565b005b34801561023757600080fd5b50610240610a01565b60405161024d9190611ea0565b60405180910390f35b34801561026257600080fd5b5061027d60048036038101906102789190611ee7565b610a27565b60405161028a9190611de6565b60405180910390f35b6102ad60048036038101906102a89190611e32565b610a58565b005b3480156102bb57600080fd5b506102d660048036038101906102d19190611e32565b611155565b005b3480156102e457600080fd5b506102ff60048036038101906102fa9190611e32565b61141b565b60405161031398979695949392919061202e565b60405180910390f35b34801561032857600080fd5b50610343600480360381019061033e9190611e32565b611518565b005b34801561035157600080fd5b5061035a6117b3565b6040516103679190611de6565b60405180910390f35b34801561037c57600080fd5b506103856117b9565b6040516103929190611de6565b60405180910390f35b3480156103a757600080fd5b506103b06117c3565b6040516103bd9190611de6565b60405180910390f35b3480156103d257600080fd5b506103ed60048036038101906103e89190611e32565b6117c9565b005b3480156103fb57600080fd5b50610404611a8f565b6040516104119190611de6565b60405180910390f35b34801561042657600080fd5b50610441600480360381019061043c91906120b3565b611a95565b60405161044f9291906120e0565b60405180910390f35b34801561046457600080fd5b5061046d611ab9565b60405161047a9190611de6565b60405180910390f35b34801561048f57600080fd5b506104aa60048036038101906104a59190611e32565b611abf565b005b3480156104b857600080fd5b506104c1611d5a565b6040516104ce9190611de6565b60405180910390f35b60015481565b80600160028111156104f2576104f1611f27565b5b6008600083815260200190815260200160002060030160009054906101000a900460ff16600281111561052857610527611f27565b5b14610568576040517f08c379a000000000000000000000000000000000000000000000000000000000815260040161055f90612155565b60405180910390fd5b813373ffffffffffffffffffffffffffffffffffffffff166008600083815260200190815260200160002060070160009054906101000a900473ffffffffffffffffffffffffffffffffffffffff1673ffffffffffffffffffffffffffffffffffffffff161461060d576040517f08c379a0000000000000000000000000000000000000000000000000000000008152600401610604906121c1565b60405180910390fd5b60006008600085815260200190815260200160002060030160006101000a81548160ff0219169083600281111561064757610646611f27565b5b0217905550505050565b80600960003373ffffffffffffffffffffffffffffffffffffffff1673ffffffffffffffffffffffffffffffffffffffff1681526020019081526020016000206000015410156106d6576040517f08c379a00000000000000000000000000000000000000000000000000000000081526004016106cd9061222d565b60405180910390fd5b60006002546001546106e8919061227c565b905060006004546003546106fc919061227c565b905082600960003373ffffffffffffffffffffffffffffffffffffffff1673ffffffffffffffffffffffffffffffffffffffff168152602001908152602001600020600001600082825461075091906122be565b92505081905550826001600082825461076991906122f2565b92505081905550600060035490506001546005546107879190612355565b6003819055506001548361079b9190612355565b600281905550600354826107af9190612355565b600481905550600354816107c391906122be565b600960003373ffffffffffffffffffffffffffffffffffffffff1673ffffffffffffffffffffffffffffffffffffffff168152602001908152602001600020600101600082825461081491906122f2565b9250508190555050505050565b60005481565b6000600454905090565b80600960003373ffffffffffffffffffffffffffffffffffffffff1673ffffffffffffffffffffffffffffffffffffffff1681526020019081526020016000206001015410156108b6576040517f08c379a00000000000000000000000000000000000000000000000000000000081526004016108ad9061222d565b60405180910390fd5b60006002546001546108c8919061227c565b905060006004546003546108dc919061227c565b905082600960003373ffffffffffffffffffffffffffffffffffffffff1673ffffffffffffffffffffffffffffffffffffffff168152602001908152602001600020600101600082825461093091906122be565b92505081905550826003600082825461094991906122f2565b92505081905550600060015490506003546005546109679190612355565b6001819055506001548361097b9190612355565b6002819055506003548261098f9190612355565b600481905550600154816109a391906122be565b600960003373ffffffffffffffffffffffffffffffffffffffff1673ffffffffffffffffffffffffffffffffffffffff16815260200190815260200160002060000160008282546109f491906122f2565b9250508190555050505050565b600660009054906101000a900473ffffffffffffffffffffffffffffffffffffffff1681565b600a6020528160005260406000208181548110610a4357600080fd5b90600052602060002001600091509150505481565b8060016002811115610a6d57610a6c611f27565b5b6008600083815260200190815260200160002060030160009054906101000a900460ff166002811115610aa357610aa2611f27565b5b14610ae3576040517f08c379a0000000000000000000000000000000000000000000000000000000008152600401610ada90612155565b60405180910390fd5b813373ffffffffffffffffffffffffffffffffffffffff166008600083815260200190815260200160002060070160009054906101000a900473ffffffffffffffffffffffffffffffffffffffff1673ffffffffffffffffffffffffffffffffffffffff1614610b88576040517f08c379a0000000000000000000000000000000000000000000000000000000008152600401610b7f906121c1565b60405180910390fd5b600060086000858152602001908152602001600020600101541115610e5e57600060086000858152602001908152602001600020600501541115610cc2576008600084815260200190815260200160002060050154341015610c1f576040517f08c379a0000000000000000000000000000000000000000000000000000000008152600401610c16906123d2565b60405180910390fd5b600860008481526020019081526020016000206005015460076000828254610c4791906122f2565b925050819055506008600084815260200190815260200160002060010154600960003373ffffffffffffffffffffffffffffffffffffffff1673ffffffffffffffffffffffffffffffffffffffff1681526020019081526020016000206000016000828254610cb691906122f2565b92505081905550610e59565b6008600084815260200190815260200160002060010154600960003373ffffffffffffffffffffffffffffffffffffffff1673ffffffffffffffffffffffffffffffffffffffff168152602001908152602001600020600001541015610d5d576040517f08c379a0000000000000000000000000000000000000000000000000000000008152600401610d5490612464565b60405180910390fd5b6008600084815260200190815260200160002060010154600960003373ffffffffffffffffffffffffffffffffffffffff1673ffffffffffffffffffffffffffffffffffffffff1681526020019081526020016000206000016000828254610dc591906122be565b92505081905550600860008481526020019081526020016000206006015460076000828254610df491906122be565b925050819055503373ffffffffffffffffffffffffffffffffffffffff166108fc60086000868152602001908152602001600020600601549081150290604051600060405180830381858888f19350505050158015610e57573d6000803e3d6000fd5b505b611111565b600060086000858152602001908152602001600020600501541115610f79576008600084815260200190815260200160002060050154341015610ed6576040517f08c379a0000000000000000000000000000000000000000000000000000000008152600401610ecd906123d2565b60405180910390fd5b600860008481526020019081526020016000206005015460076000828254610efe91906122f2565b925050819055506008600084815260200190815260200160002060020154600960003373ffffffffffffffffffffffffffffffffffffffff1673ffffffffffffffffffffffffffffffffffffffff1681526020019081526020016000206001016000828254610f6d91906122f2565b92505081905550611110565b6008600084815260200190815260200160002060020154600960003373ffffffffffffffffffffffffffffffffffffffff1673ffffffffffffffffffffffffffffffffffffffff168152602001908152602001600020600101541015611014576040517f08c379a000000000000000000000000000000000000000000000000000000000815260040161100b90612464565b60405180910390fd5b6008600084815260200190815260200160002060020154600960003373ffffffffffffffffffffffffffffffffffffffff1673ffffffffffffffffffffffffffffffffffffffff168152602001908152602001600020600101600082825461107c91906122be565b925050819055506008600084815260200190815260200160002060060154600760008282546110ab91906122be565b925050819055503373ffffffffffffffffffffffffffffffffffffffff166108fc60086000868152602001908152602001600020600601549081150290604051600060405180830381858888f1935050505015801561110e573d6000803e3d6000fd5b505b5b60026008600085815260200190815260200160002060030160006101000a81548160ff0219169083600281111561114b5761114a611f27565b5b0217905550505050565b600081600454611165919061227c565b905081600960003373ffffffffffffffffffffffffffffffffffffffff1673ffffffffffffffffffffffffffffffffffffffff1681526020019081526020016000206001015410156111ec576040517f08c379a00000000000000000000000000000000000000000000000000000000081526004016111e3906124d0565b60405180910390fd5b6111f4611d60565b600054816000018181525050600080815480929190611212906124f0565b91905055506040518060400160405280600181526020017f420000000000000000000000000000000000000000000000000000000000000081525081608001819052508281604001818152505060018160600190600281111561127857611277611f27565b5b9081600281111561128c5761128b611f27565b5b81525050818160c0018181525050338160e0019073ffffffffffffffffffffffffffffffffffffffff16908173ffffffffffffffffffffffffffffffffffffffff168152505080600860008360000151815260200190815260200160002060008201518160000155602082015181600101556040820151816002015560608201518160030160006101000a81548160ff0219169083600281111561133357611332611f27565b5b0217905550608082015181600401908161134d9190612773565b5060a0820151816005015560c0820151816006015560e08201518160070160006101000a81548173ffffffffffffffffffffffffffffffffffffffff021916908373ffffffffffffffffffffffffffffffffffffffff160217905550905050600a60003373ffffffffffffffffffffffffffffffffffffffff1673ffffffffffffffffffffffffffffffffffffffff16815260200190815260200160002081600001519080600181540180825580915050600190039060005260206000200160009091909190915055505050565b60086020528060005260406000206000915090508060000154908060010154908060020154908060030160009054906101000a900460ff169080600401805461146390612596565b80601f016020809104026020016040519081016040528092919081815260200182805461148f90612596565b80156114dc5780601f106114b1576101008083540402835291602001916114dc565b820191906000526020600020905b8154815290600101906020018083116114bf57829003601f168201915b5050505050908060050154908060060154908060070160009054906101000a900473ffffffffffffffffffffffffffffffffffffffff16905088565b600081600254611528919061227c565b9050803373ffffffffffffffffffffffffffffffffffffffff16311015611584576040517f08c379a000000000000000000000000000000000000000000000000000000000815260040161157b90612891565b60405180910390fd5b61158c611d60565b6000548160000181815250506000808154809291906115aa906124f0565b91905055506040518060400160405280600181526020017f41000000000000000000000000000000000000000000000000000000000000008152508160800181905250828160200181815250506001816060019060028111156116105761160f611f27565b5b9081600281111561162457611623611f27565b5b81525050818160a0018181525050338160e0019073ffffffffffffffffffffffffffffffffffffffff16908173ffffffffffffffffffffffffffffffffffffffff168152505080600860008360000151815260200190815260200160002060008201518160000155602082015181600101556040820151816002015560608201518160030160006101000a81548160ff021916908360028111156116cb576116ca611f27565b5b021790555060808201518160040190816116e59190612773565b5060a0820151816005015560c0820151816006015560e08201518160070160006101000a81548173ffffffffffffffffffffffffffffffffffffffff021916908373ffffffffffffffffffffffffffffffffffffffff160217905550905050600a60003373ffffffffffffffffffffffffffffffffffffffff1673ffffffffffffffffffffffffffffffffffffffff16815260200190815260200160002081600001519080600181540180825580915050600190039060005260206000200160009091909190915055505050565b60055481565b6000600254905090565b60075481565b6000816002546117d9919061227c565b905081600960003373ffffffffffffffffffffffffffffffffffffffff1673ffffffffffffffffffffffffffffffffffffffff168152602001908152602001600020600001541015611860576040517f08c379a0000000000000000000000000000000000000000000000000000000008152600401611857906124d0565b60405180910390fd5b611868611d60565b600054816000018181525050600080815480929190611886906124f0565b91905055506040518060400160405280600181526020017f41000000000000000000000000000000000000000000000000000000000000008152508160800181905250828160200181815250506001816060019060028111156118ec576118eb611f27565b5b90816002811115611900576118ff611f27565b5b81525050818160c0018181525050338160e0019073ffffffffffffffffffffffffffffffffffffffff16908173ffffffffffffffffffffffffffffffffffffffff168152505080600860008360000151815260200190815260200160002060008201518160000155602082015181600101556040820151816002015560608201518160030160006101000a81548160ff021916908360028111156119a7576119a6611f27565b5b021790555060808201518160040190816119c19190612773565b5060a0820151816005015560c0820151816006015560e08201518160070160006101000a81548173ffffffffffffffffffffffffffffffffffffffff021916908373ffffffffffffffffffffffffffffffffffffffff160217905550905050600a60003373ffffffffffffffffffffffffffffffffffffffff1673ffffffffffffffffffffffffffffffffffffffff16815260200190815260200160002081600001519080600181540180825580915050600190039060005260206000200160009091909190915055505050565b60045481565b60096020528060005260406000206000915090508060000154908060010154905082565b60035481565b600081600454611acf919061227c565b9050803373ffffffffffffffffffffffffffffffffffffffff16311015611b2b576040517f08c379a0000000000000000000000000000000000000000000000000000000008152600401611b2290612891565b60405180910390fd5b611b33611d60565b600054816000018181525050600080815480929190611b51906124f0565b91905055506040518060400160405280600181526020017f4200000000000000000000000000000000000000000000000000000000000000815250816080018190525082816040018181525050600181606001906002811115611bb757611bb6611f27565b5b90816002811115611bcb57611bca611f27565b5b81525050818160a0018181525050338160e0019073ffffffffffffffffffffffffffffffffffffffff16908173ffffffffffffffffffffffffffffffffffffffff168152505080600860008360000151815260200190815260200160002060008201518160000155602082015181600101556040820151816002015560608201518160030160006101000a81548160ff02191690836002811115611c7257611c71611f27565b5b02179055506080820151816004019081611c8c9190612773565b5060a0820151816005015560c0820151816006015560e08201518160070160006101000a81548173ffffffffffffffffffffffffffffffffffffffff021916908373ffffffffffffffffffffffffffffffffffffffff160217905550905050600a60003373ffffffffffffffffffffffffffffffffffffffff1673ffffffffffffffffffffffffffffffffffffffff16815260200190815260200160002081600001519080600181540180825580915050600190039060005260206000200160009091909190915055505050565b60025481565b60405180610100016040528060008152602001600081526020016000815260200160006002811115611d9557611d94611f27565b5b8152602001606081526020016000815260200160008152602001600073ffffffffffffffffffffffffffffffffffffffff1681525090565b6000819050919050565b611de081611dcd565b82525050565b6000602082019050611dfb6000830184611dd7565b92915050565b600080fd5b611e0f81611dcd565b8114611e1a57600080fd5b50565b600081359050611e2c81611e06565b92915050565b600060208284031215611e4857611e47611e01565b5b6000611e5684828501611e1d565b91505092915050565b600073ffffffffffffffffffffffffffffffffffffffff82169050919050565b6000611e8a82611e5f565b9050919050565b611e9a81611e7f565b82525050565b6000602082019050611eb56000830184611e91565b92915050565b611ec481611e7f565b8114611ecf57600080fd5b50565b600081359050611ee181611ebb565b92915050565b60008060408385031215611efe57611efd611e01565b5b6000611f0c85828601611ed2565b9250506020611f1d85828601611e1d565b9150509250929050565b7f4e487b7100000000000000000000000000000000000000000000000000000000600052602160045260246000fd5b60038110611f6757611f66611f27565b5b50565b6000819050611f7882611f56565b919050565b6000611f8882611f6a565b9050919050565b611f9881611f7d565b82525050565b600081519050919050565b600082825260208201905092915050565b60005b83811015611fd8578082015181840152602081019050611fbd565b60008484015250505050565b6000601f19601f8301169050919050565b600061200082611f9e565b61200a8185611fa9565b935061201a818560208601611fba565b61202381611fe4565b840191505092915050565b600061010082019050612044600083018b611dd7565b612051602083018a611dd7565b61205e6040830189611dd7565b61206b6060830188611f8f565b818103608083015261207d8187611ff5565b905061208c60a0830186611dd7565b61209960c0830185611dd7565b6120a660e0830184611e91565b9998505050505050505050565b6000602082840312156120c9576120c8611e01565b5b60006120d784828501611ed2565b91505092915050565b60006040820190506120f56000830185611dd7565b6121026020830184611dd7565b9392505050565b7f54686973206f726465722063616e277420626520657865637574656400000000600082015250565b600061213f601c83611fa9565b915061214a82612109565b602082019050919050565b6000602082019050818103600083015261216e81612132565b9050919050565b7f596f752063616e277420657865637574652074686973206f7264657200000000600082015250565b60006121ab601c83611fa9565b91506121b682612175565b602082019050919050565b600060208201905081810360008301526121da8161219e565b9050919050565b7f496e73756666696369656e7420746f6b656e7320746f20747261646500000000600082015250565b6000612217601c83611fa9565b9150612222826121e1565b602082019050919050565b600060208201905081810360008301526122468161220a565b9050919050565b7f4e487b7100000000000000000000000000000000000000000000000000000000600052601160045260246000fd5b600061228782611dcd565b915061229283611dcd565b92508282026122a081611dcd565b915082820484148315176122b7576122b661224d565b5b5092915050565b60006122c982611dcd565b91506122d483611dcd565b92508282039050818111156122ec576122eb61224d565b5b92915050565b60006122fd82611dcd565b915061230883611dcd565b92508282019050808211156123205761231f61224d565b5b92915050565b7f4e487b7100000000000000000000000000000000000000000000000000000000600052601260045260246000fd5b600061236082611dcd565b915061236b83611dcd565b92508261237b5761237a612326565b5b828204905092915050565b7f496e73756666696369656e7420416d6f756e7400000000000000000000000000600082015250565b60006123bc601383611fa9565b91506123c782612386565b602082019050919050565b600060208201905081810360008301526123eb816123af565b9050919050565b7f496e73756666696369656e7420616d6f756e74206f6620746f6b656e7320746f60008201527f2073656c6c000000000000000000000000000000000000000000000000000000602082015250565b600061244e602583611fa9565b9150612459826123f2565b604082019050919050565b6000602082019050818103600083015261247d81612441565b9050919050565b7f496e73756666696369656e7420746f6b656e7320746f2073656c6c0000000000600082015250565b60006124ba601b83611fa9565b91506124c582612484565b602082019050919050565b600060208201905081810360008301526124e9816124ad565b9050919050565b60006124fb82611dcd565b91507fffffffffffffffffffffffffffffffffffffffffffffffffffffffffffffffff820361252d5761252c61224d565b5b600182019050919050565b7f4e487b7100000000000000000000000000000000000000000000000000000000600052604160045260246000fd5b7f4e487b7100000000000000000000000000000000000000000000000000000000600052602260045260246000fd5b600060028204905060018216806125ae57607f821691505b6020821081036125c1576125c0612567565b5b50919050565b60008190508160005260206000209050919050565b60006020601f8301049050919050565b600082821b905092915050565b6000600883026126297fffffffffffffffffffffffffffffffffffffffffffffffffffffffffffffffff826125ec565b61263386836125ec565b95508019841693508086168417925050509392505050565b6000819050919050565b600061267061266b61266684611dcd565b61264b565b611dcd565b9050919050565b6000819050919050565b61268a83612655565b61269e61269682612677565b8484546125f9565b825550505050565b600090565b6126b36126a6565b6126be818484612681565b505050565b5b818110156126e2576126d76000826126ab565b6001810190506126c4565b5050565b601f821115612727576126f8816125c7565b612701846125dc565b81016020851015612710578190505b61272461271c856125dc565b8301826126c3565b50505b505050565b600082821c905092915050565b600061274a6000198460080261272c565b1980831691505092915050565b60006127638383612739565b9150826002028217905092915050565b61277c82611f9e565b67ffffffffffffffff81111561279557612794612538565b5b61279f8254612596565b6127aa8282856126e6565b600060209050601f8311600181146127dd57600084156127cb578287015190505b6127d58582612757565b86555061283d565b601f1984166127eb866125c7565b60005b82811015612813578489015182556001820191506020850194506020810190506127ee565b86831015612830578489015161282c601f891682612739565b8355505b6001600288020188555050505b505050505050565b7f496e73756666696369656e742042616c616e6365000000000000000000000000600082015250565b600061287b601483611fa9565b915061288682612845565b602082019050919050565b600060208201905081810360008301526128aa8161286e565b905091905056fea26469706673582212208364c3fc27c278c671b95d2ed680cea5b45999055b11cccc6861a1cd0e75939f64736f6c63430008120033",
  "linkReferences": {},
  "deployedLinkReferences": {}
}