{
  "_format": "hh-sol-artifact-1",
  "contractName": "CrowdFunding",
  "sourceName": "contracts/Crowdfunding.sol",
  "abi": [
    {
      "inputs": [],
      "stateMutability": "nonpayable",
      "type": "constructor"
    },
    {
      "inputs": [],
      "name": "Deadline_hit",
      "type": "error"
    },
    {
      "anonymous": false,
      "inputs": [
        {
          "indexed": false,
          "internalType": "string",
          "name": "name",
          "type": "string"
        },
        {
          "indexed": false,
          "internalType": "uint256",
          "name": "target",
          "type": "uint256"
        }
      ],
      "name": "Campaign_Failed",
      "type": "event"
    },
    {
      "anonymous": false,
      "inputs": [
        {
          "indexed": false,
          "internalType": "string",
          "name": "name",
          "type": "string"
        },
        {
          "indexed": false,
          "internalType": "uint256",
          "name": "target",
          "type": "uint256"
        },
        {
          "indexed": false,
          "internalType": "uint256",
          "name": "deadline",
          "type": "uint256"
        }
      ],
      "name": "Campaign_Launched",
      "type": "event"
    },
    {
      "anonymous": false,
      "inputs": [
        {
          "indexed": false,
          "internalType": "string",
          "name": "name",
          "type": "string"
        },
        {
          "indexed": false,
          "internalType": "uint256",
          "name": "target",
          "type": "uint256"
        }
      ],
      "name": "Campaign_Successful",
      "type": "event"
    },
    {
      "inputs": [
        {
          "internalType": "uint256",
          "name": "",
          "type": "uint256"
        }
      ],
      "name": "Campaign_Records",
      "outputs": [
        {
          "internalType": "enum CrowdFunding.State",
          "name": "currentState",
          "type": "uint8"
        },
        {
          "internalType": "address",
          "name": "campaign_owner",
          "type": "address"
        },
        {
          "internalType": "string",
          "name": "name",
          "type": "string"
        },
        {
          "internalType": "uint256",
          "name": "target_amount",
          "type": "uint256"
        },
        {
          "internalType": "uint256",
          "name": "deadline",
          "type": "uint256"
        },
        {
          "internalType": "uint256",
          "name": "balance",
          "type": "uint256"
        },
        {
          "internalType": "uint256",
          "name": "leftAmount",
          "type": "uint256"
        },
        {
          "internalType": "bool",
          "name": "success",
          "type": "bool"
        }
      ],
      "stateMutability": "view",
      "type": "function"
    },
    {
      "inputs": [
        {
          "internalType": "uint256",
          "name": "id",
          "type": "uint256"
        }
      ],
      "name": "check_Status",
      "outputs": [
        {
          "internalType": "string",
          "name": "",
          "type": "string"
        }
      ],
      "stateMutability": "view",
      "type": "function"
    },
    {
      "inputs": [
        {
          "internalType": "uint256",
          "name": "id",
          "type": "uint256"
        }
      ],
      "name": "contribute",
      "outputs": [],
      "stateMutability": "payable",
      "type": "function"
    },
    {
      "inputs": [],
      "name": "counter",
      "outputs": [
        {
          "internalType": "uint256",
          "name": "",
          "type": "uint256"
        }
      ],
      "stateMutability": "view",
      "type": "function"
    },
    {
      "inputs": [
        {
          "internalType": "string",
          "name": "_name",
          "type": "string"
        },
        {
          "internalType": "uint256",
          "name": "_targetAmount",
          "type": "uint256"
        },
        {
          "internalType": "uint256",
          "name": "_deadline",
          "type": "uint256"
        }
      ],
      "name": "create_Campaign",
      "outputs": [],
      "stateMutability": "nonpayable",
      "type": "function"
    },
    {
      "inputs": [
        {
          "internalType": "uint256",
          "name": "",
          "type": "uint256"
        },
        {
          "internalType": "address",
          "name": "",
          "type": "address"
        }
      ],
      "name": "fund_Records",
      "outputs": [
        {
          "internalType": "uint256",
          "name": "",
          "type": "uint256"
        }
      ],
      "stateMutability": "view",
      "type": "function"
    },
    {
      "inputs": [
        {
          "internalType": "uint256",
          "name": "id",
          "type": "uint256"
        }
      ],
      "name": "hit_deadline",
      "outputs": [],
      "stateMutability": "nonpayable",
      "type": "function"
    },
    {
      "inputs": [],
      "name": "owner",
      "outputs": [
        {
          "internalType": "address",
          "name": "",
          "type": "address"
        }
      ],
      "stateMutability": "view",
      "type": "function"
    },
    {
      "inputs": [
        {
          "internalType": "uint256",
          "name": "id",
          "type": "uint256"
        }
      ],
      "name": "withdraw_Contributor",
      "outputs": [],
      "stateMutability": "nonpayable",
      "type": "function"
    },
    {
      "inputs": [
        {
          "internalType": "uint256",
          "name": "id",
          "type": "uint256"
        }
      ],
      "name": "withdraw_Owner",
      "outputs": [],
      "stateMutability": "nonpayable",
      "type": "function"
    }
  ],
  "bytecode": "0x608060405234801561001057600080fd5b5033600360006101000a81548173ffffffffffffffffffffffffffffffffffffffff021916908373ffffffffffffffffffffffffffffffffffffffff160217905550611c31806100616000396000f3fe6080604052600436106100915760003560e01c8063817c8f5011610059578063817c8f50146101805780638da5cb5b146101bd5780639f35782b146101e8578063c1cbbca714610211578063e3d26aef1461022d57610091565b806303c1bfa61461009657806331a54020146100bf578063359bde8f146101035780635753efea1461012c57806361bc221a14610155575b600080fd5b3480156100a257600080fd5b506100bd60048036038101906100b89190611124565b61026a565b005b3480156100cb57600080fd5b506100e660048036038101906100e19190611124565b610474565b6040516100fa9897969594939291906112c3565b60405180910390f35b34801561010f57600080fd5b5061012a60048036038101906101259190611124565b61057e565b005b34801561013857600080fd5b50610153600480360381019061014e9190611124565b610684565b005b34801561016157600080fd5b5061016a6108da565b6040516101779190611348565b60405180910390f35b34801561018c57600080fd5b506101a760048036038101906101a2919061138f565b6108e0565b6040516101b49190611348565b60405180910390f35b3480156101c957600080fd5b506101d2610905565b6040516101df91906113cf565b60405180910390f35b3480156101f457600080fd5b5061020f600480360381019061020a919061151f565b61092b565b005b61022b60048036038101906102269190611124565b610ad8565b005b34801561023957600080fd5b50610254600480360381019061024f9190611124565b610e70565b604051610261919061158e565b60405180910390f35b6001816001600082815260200190815260200160002060000160009054906101000a900460ff1660018111156102a3576102a2611151565b5b8260018111156102b6576102b5611151565b5b146102f6576040517f08c379a00000000000000000000000000000000000000000000000000000000081526004016102ed90611622565b60405180910390fd5b600015156001600085815260200190815260200160002060060160009054906101000a900460ff16151514610360576040517f08c379a0000000000000000000000000000000000000000000000000000000008152600401610357906116b4565b60405180910390fd5b60006002600085815260200190815260200160002060003373ffffffffffffffffffffffffffffffffffffffff1673ffffffffffffffffffffffffffffffffffffffff16815260200190815260200160002054905060006002600086815260200190815260200160002060003373ffffffffffffffffffffffffffffffffffffffff1673ffffffffffffffffffffffffffffffffffffffff16815260200190815260200160002081905550600060016000868152602001908152602001600020600401819055503373ffffffffffffffffffffffffffffffffffffffff166108fc829081150290604051600060405180830381858888f1935050505015801561046d573d6000803e3d6000fd5b5050505050565b60016020528060005260406000206000915090508060000160009054906101000a900460ff16908060000160019054906101000a900473ffffffffffffffffffffffffffffffffffffffff16908060010180546104d090611703565b80601f01602080910402602001604051908101604052809291908181526020018280546104fc90611703565b80156105495780601f1061051e57610100808354040283529160200191610549565b820191906000526020600020905b81548152906001019060200180831161052c57829003601f168201915b5050505050908060020154908060030154908060040154908060050154908060060160009054906101000a900460ff16905088565b806001600082815260200190815260200160002060000160019054906101000a900473ffffffffffffffffffffffffffffffffffffffff1673ffffffffffffffffffffffffffffffffffffffff163373ffffffffffffffffffffffffffffffffffffffff1614610623576040517f08c379a000000000000000000000000000000000000000000000000000000000815260040161061a90611622565b60405180910390fd5b600160008381526020019081526020016000206003015442111561068057600180600084815260200190815260200160002060000160006101000a81548160ff0219169083600181111561067a57610679611151565b5b02179055505b5050565b806001600082815260200190815260200160002060000160019054906101000a900473ffffffffffffffffffffffffffffffffffffffff1673ffffffffffffffffffffffffffffffffffffffff163373ffffffffffffffffffffffffffffffffffffffff1614610729576040517f08c379a000000000000000000000000000000000000000000000000000000000815260040161072090611622565b60405180910390fd5b6001826001600082815260200190815260200160002060000160009054906101000a900460ff16600181111561076257610761611151565b5b82600181111561077557610774611151565b5b146107b5576040517f08c379a00000000000000000000000000000000000000000000000000000000081526004016107ac90611622565b60405180910390fd5b600115156001600086815260200190815260200160002060060160009054906101000a900460ff1615151461081f576040517f08c379a000000000000000000000000000000000000000000000000000000000815260040161081690611780565b60405180910390fd5b600060016000868152602001908152602001600020600401549050600060016000878152602001908152602001600020600401819055506001600086815260200190815260200160002060000160019054906101000a900473ffffffffffffffffffffffffffffffffffffffff1673ffffffffffffffffffffffffffffffffffffffff166108fc829081150290604051600060405180830381858888f193505050501580156108d2573d6000803e3d6000fd5b505050505050565b60005481565b6002602052816000526040600020602052806000526040600020600091509150505481565b600360009054906101000a900473ffffffffffffffffffffffffffffffffffffffff1681565b61093361106b565b83816040018190525082816060018181525050814261095291906117cf565b81608001818152505033816020019073ffffffffffffffffffffffffffffffffffffffff16908173ffffffffffffffffffffffffffffffffffffffff1681525050828160c00181815250506000816000019060018111156109b6576109b5611151565b5b908160018111156109ca576109c9611151565b5b8152505080600160008054815260200190815260200160002060008201518160000160006101000a81548160ff02191690836001811115610a0e57610a0d611151565b5b021790555060208201518160000160016101000a81548173ffffffffffffffffffffffffffffffffffffffff021916908373ffffffffffffffffffffffffffffffffffffffff1602179055506040820151816001019081610a6f91906119af565b50606082015181600201556080820151816003015560a0820151816004015560c0820151816005015560e08201518160060160006101000a81548160ff021916908315150217905550905050600080815480929190610acd90611a81565b919050555050505050565b6000816001600082815260200190815260200160002060000160009054906101000a900460ff166001811115610b1157610b10611151565b5b826001811115610b2457610b23611151565b5b14610b64576040517f08c379a0000000000000000000000000000000000000000000000000000000008152600401610b5b90611622565b60405180910390fd5b8260006001811115610b7957610b78611151565b5b6001600083815260200190815260200160002060000160009054906101000a900460ff166001811115610baf57610bae611151565b5b14610bef576040517f08c379a0000000000000000000000000000000000000000000000000000000008152600401610be690611b15565b60405180910390fd5b60016000828152602001908152602001600020600301544210610c7c57600180600083815260200190815260200160002060000160006101000a81548160ff02191690836001811115610c4557610c44611151565b5b02179055506040517f9e0d689100000000000000000000000000000000000000000000000000000000815260040160405180910390fd5b6001600082815260200190815260200160002060050154341115610cd5576040517f08c379a0000000000000000000000000000000000000000000000000000000008152600401610ccc90611ba7565b60405180910390fd5b34600160008681526020019081526020016000206004016000828254610cfb91906117cf565b92505081905550346002600086815260200190815260200160002060003373ffffffffffffffffffffffffffffffffffffffff1673ffffffffffffffffffffffffffffffffffffffff168152602001908152602001600020819055506001600085815260200190815260200160002060020154600160008681526020019081526020016000206004015410610e1757600180600086815260200190815260200160002060000160006101000a81548160ff02191690836001811115610dc357610dc2611151565b5b0217905550600180600086815260200190815260200160002060060160006101000a81548160ff02191690831515021790555060006001600086815260200190815260200160002060050181905550610e6a565b60016000858152602001908152602001600020600401546001600086815260200190815260200160002060020154610e4f9190611bc7565b60016000868152602001908152602001600020600501819055505b50505050565b6060816001600082815260200190815260200160002060000160019054906101000a900473ffffffffffffffffffffffffffffffffffffffff1673ffffffffffffffffffffffffffffffffffffffff163373ffffffffffffffffffffffffffffffffffffffff1614610f17576040517f08c379a0000000000000000000000000000000000000000000000000000000008152600401610f0e90611622565b60405180910390fd5b60006040518060400160405280600781526020017f7375636365737300000000000000000000000000000000000000000000000000815250905060006040518060400160405280600781526020017f6f6e676f696e6700000000000000000000000000000000000000000000000000815250905060006040518060400160405280600681526020017f6661696c65640000000000000000000000000000000000000000000000000000815250905060016000878152602001908152602001600020600301544211806110105750600115156001600088815260200190815260200160002060060160009054906101000a900460ff161515145b1561105e57600160008781526020019081526020016000206002015460016000888152602001908152602001600020600401541061105357829450505050611065565b809450505050611065565b8194505050505b50919050565b6040518061010001604052806000600181111561108b5761108a611151565b5b8152602001600073ffffffffffffffffffffffffffffffffffffffff16815260200160608152602001600081526020016000815260200160008152602001600081526020016000151581525090565b6000604051905090565b600080fd5b600080fd5b6000819050919050565b611101816110ee565b811461110c57600080fd5b50565b60008135905061111e816110f8565b92915050565b60006020828403121561113a576111396110e4565b5b60006111488482850161110f565b91505092915050565b7f4e487b7100000000000000000000000000000000000000000000000000000000600052602160045260246000fd5b6002811061119157611190611151565b5b50565b60008190506111a282611180565b919050565b60006111b282611194565b9050919050565b6111c2816111a7565b82525050565b600073ffffffffffffffffffffffffffffffffffffffff82169050919050565b60006111f3826111c8565b9050919050565b611203816111e8565b82525050565b600081519050919050565b600082825260208201905092915050565b60005b83811015611243578082015181840152602081019050611228565b60008484015250505050565b6000601f19601f8301169050919050565b600061126b82611209565b6112758185611214565b9350611285818560208601611225565b61128e8161124f565b840191505092915050565b6112a2816110ee565b82525050565b60008115159050919050565b6112bd816112a8565b82525050565b6000610100820190506112d9600083018b6111b9565b6112e6602083018a6111fa565b81810360408301526112f88189611260565b90506113076060830188611299565b6113146080830187611299565b61132160a0830186611299565b61132e60c0830185611299565b61133b60e08301846112b4565b9998505050505050505050565b600060208201905061135d6000830184611299565b92915050565b61136c816111e8565b811461137757600080fd5b50565b60008135905061138981611363565b92915050565b600080604083850312156113a6576113a56110e4565b5b60006113b48582860161110f565b92505060206113c58582860161137a565b9150509250929050565b60006020820190506113e460008301846111fa565b92915050565b600080fd5b600080fd5b7f4e487b7100000000000000000000000000000000000000000000000000000000600052604160045260246000fd5b61142c8261124f565b810181811067ffffffffffffffff8211171561144b5761144a6113f4565b5b80604052505050565b600061145e6110da565b905061146a8282611423565b919050565b600067ffffffffffffffff82111561148a576114896113f4565b5b6114938261124f565b9050602081019050919050565b82818337600083830152505050565b60006114c26114bd8461146f565b611454565b9050828152602081018484840111156114de576114dd6113ef565b5b6114e98482856114a0565b509392505050565b600082601f830112611506576115056113ea565b5b81356115168482602086016114af565b91505092915050565b600080600060608486031215611538576115376110e4565b5b600084013567ffffffffffffffff811115611556576115556110e9565b5b611562868287016114f1565b93505060206115738682870161110f565b92505060406115848682870161110f565b9150509250925092565b600060208201905081810360008301526115a88184611260565b905092915050565b7f596f752063616e27742063616c6c20746869732066756e6374696f6e20696e2060008201527f63757272656e7453746174650000000000000000000000000000000000000000602082015250565b600061160c602c83611214565b9150611617826115b0565b604082019050919050565b6000602082019050818103600083015261163b816115ff565b9050919050565b7f596f752063616e277420776974686472617720796f757220636f6e747269627560008201527f7465642066756e64730000000000000000000000000000000000000000000000602082015250565b600061169e602983611214565b91506116a982611642565b604082019050919050565b600060208201905081810360008301526116cd81611691565b9050919050565b7f4e487b7100000000000000000000000000000000000000000000000000000000600052602260045260246000fd5b6000600282049050600182168061171b57607f821691505b60208210810361172e5761172d6116d4565b5b50919050565b7f596f752063616e2774207769746864726177207468652066756e647300000000600082015250565b600061176a601c83611214565b915061177582611734565b602082019050919050565b600060208201905081810360008301526117998161175d565b9050919050565b7f4e487b7100000000000000000000000000000000000000000000000000000000600052601160045260246000fd5b60006117da826110ee565b91506117e5836110ee565b92508282019050808211156117fd576117fc6117a0565b5b92915050565b60008190508160005260206000209050919050565b60006020601f8301049050919050565b600082821b905092915050565b6000600883026118657fffffffffffffffffffffffffffffffffffffffffffffffffffffffffffffffff82611828565b61186f8683611828565b95508019841693508086168417925050509392505050565b6000819050919050565b60006118ac6118a76118a2846110ee565b611887565b6110ee565b9050919050565b6000819050919050565b6118c683611891565b6118da6118d2826118b3565b848454611835565b825550505050565b600090565b6118ef6118e2565b6118fa8184846118bd565b505050565b5b8181101561191e576119136000826118e7565b600181019050611900565b5050565b601f8211156119635761193481611803565b61193d84611818565b8101602085101561194c578190505b61196061195885611818565b8301826118ff565b50505b505050565b600082821c905092915050565b600061198660001984600802611968565b1980831691505092915050565b600061199f8383611975565b9150826002028217905092915050565b6119b882611209565b67ffffffffffffffff8111156119d1576119d06113f4565b5b6119db8254611703565b6119e6828285611922565b600060209050601f831160018114611a195760008415611a07578287015190505b611a118582611993565b865550611a79565b601f198416611a2786611803565b60005b82811015611a4f57848901518255600182019150602085019450602081019050611a2a565b86831015611a6c5784890151611a68601f891682611975565b8355505b6001600288020188555050505b505050505050565b6000611a8c826110ee565b91507fffffffffffffffffffffffffffffffffffffffffffffffffffffffffffffffff8203611abe57611abd6117a0565b5b600182019050919050565b7f43616d706169676e2068617320616c726561647920656e646564000000000000600082015250565b6000611aff601a83611214565b9150611b0a82611ac9565b602082019050919050565b60006020820190508181036000830152611b2e81611af2565b9050919050565b7f596f752061726520747279696e6720746f207472616e73666572206d6f72652060008201527f657468657273207468616e2072657175697265642e2e00000000000000000000602082015250565b6000611b91603683611214565b9150611b9c82611b35565b604082019050919050565b60006020820190508181036000830152611bc081611b84565b9050919050565b6000611bd2826110ee565b9150611bdd836110ee565b9250828203905081811115611bf557611bf46117a0565b5b9291505056fea2646970667358221220ad949118b95f3b2d72a957cfd33940191968bde2b761db7498387b91be20dc4764736f6c63430008120033",
  "linkReferences": {},
  "deployedLinkReferences": {}
}